{"abi":[{"type":"constructor","inputs":[{"name":"_paymentToken","type":"address","internalType":"address"}],"stateMutability":"nonpayable"},{"type":"function","name":"ADMIN_ROLE","inputs":[],"outputs":[{"name":"","type":"bytes32","internalType":"bytes32"}],"stateMutability":"view"},{"type":"function","name":"DEFAULT_ADMIN_ROLE","inputs":[],"outputs":[{"name":"","type":"bytes32","internalType":"bytes32"}],"stateMutability":"view"},{"type":"function","name":"WHITELISTED","inputs":[],"outputs":[{"name":"","type":"bytes32","internalType":"bytes32"}],"stateMutability":"view"},{"type":"function","name":"addToWhitelist","inputs":[],"outputs":[],"stateMutability":"nonpayable"},{"type":"function","name":"deploySportsToken","inputs":[{"name":"_unitPrice","type":"uint256","internalType":"uint256"},{"name":"_supply","type":"uint256","internalType":"uint256"},{"name":"_reciever","type":"address","internalType":"address"},{"name":"_name","type":"string","internalType":"string"},{"name":"_symbol","type":"string","internalType":"string"},{"name":"_initial_uri","type":"string","internalType":"string"}],"outputs":[{"name":"","type":"address","internalType":"address"}],"stateMutability":"nonpayable"},{"type":"function","name":"getRoleAdmin","inputs":[{"name":"role","type":"bytes32","internalType":"bytes32"}],"outputs":[{"name":"","type":"bytes32","internalType":"bytes32"}],"stateMutability":"view"},{"type":"function","name":"grantRole","inputs":[{"name":"role","type":"bytes32","internalType":"bytes32"},{"name":"account","type":"address","internalType":"address"}],"outputs":[],"stateMutability":"nonpayable"},{"type":"function","name":"hasRole","inputs":[{"name":"role","type":"bytes32","internalType":"bytes32"},{"name":"account","type":"address","internalType":"address"}],"outputs":[{"name":"","type":"bool","internalType":"bool"}],"stateMutability":"view"},{"type":"function","name":"isWhitelisted","inputs":[{"name":"_address","type":"address","internalType":"address"}],"outputs":[{"name":"","type":"bool","internalType":"bool"}],"stateMutability":"view"},{"type":"function","name":"paymentToken","inputs":[],"outputs":[{"name":"","type":"address","internalType":"contract IERC20"}],"stateMutability":"view"},{"type":"function","name":"removeFromWhitelist","inputs":[],"outputs":[],"stateMutability":"nonpayable"},{"type":"function","name":"renounceRole","inputs":[{"name":"role","type":"bytes32","internalType":"bytes32"},{"name":"callerConfirmation","type":"address","internalType":"address"}],"outputs":[],"stateMutability":"nonpayable"},{"type":"function","name":"revokeRole","inputs":[{"name":"role","type":"bytes32","internalType":"bytes32"},{"name":"account","type":"address","internalType":"address"}],"outputs":[],"stateMutability":"nonpayable"},{"type":"function","name":"sportsTokens","inputs":[{"name":"","type":"uint256","internalType":"uint256"}],"outputs":[{"name":"","type":"address","internalType":"address"}],"stateMutability":"view"},{"type":"function","name":"supportsInterface","inputs":[{"name":"interfaceId","type":"bytes4","internalType":"bytes4"}],"outputs":[{"name":"","type":"bool","internalType":"bool"}],"stateMutability":"view"},{"type":"event","name":"RoleAdminChanged","inputs":[{"name":"role","type":"bytes32","indexed":true,"internalType":"bytes32"},{"name":"previousAdminRole","type":"bytes32","indexed":true,"internalType":"bytes32"},{"name":"newAdminRole","type":"bytes32","indexed":true,"internalType":"bytes32"}],"anonymous":false},{"type":"event","name":"RoleGranted","inputs":[{"name":"role","type":"bytes32","indexed":true,"internalType":"bytes32"},{"name":"account","type":"address","indexed":true,"internalType":"address"},{"name":"sender","type":"address","indexed":true,"internalType":"address"}],"anonymous":false},{"type":"event","name":"RoleRevoked","inputs":[{"name":"role","type":"bytes32","indexed":true,"internalType":"bytes32"},{"name":"account","type":"address","indexed":true,"internalType":"address"},{"name":"sender","type":"address","indexed":true,"internalType":"address"}],"anonymous":false},{"type":"event","name":"SportsTokenDeployed","inputs":[{"name":"sportsToken","type":"address","indexed":true,"internalType":"address"},{"name":"unitPrice","type":"uint256","indexed":false,"internalType":"uint256"},{"name":"supply","type":"uint256","indexed":false,"internalType":"uint256"},{"name":"reciever","type":"address","indexed":false,"internalType":"address"}],"anonymous":false},{"type":"event","name":"WhitelistAdded","inputs":[{"name":"_address","type":"address","indexed":true,"internalType":"address"}],"anonymous":false},{"type":"event","name":"WhitelistRemoved","inputs":[{"name":"_address","type":"address","indexed":true,"internalType":"address"}],"anonymous":false},{"type":"error","name":"AccessControlBadConfirmation","inputs":[]},{"type":"error","name":"AccessControlUnauthorizedAccount","inputs":[{"name":"account","type":"address","internalType":"address"},{"name":"neededRole","type":"bytes32","internalType":"bytes32"}]}],"bytecode":{"object":"0x608060405234801561000f575f5ffd5b506040516153b93803806153b9833981810160405281019061003191906102a9565b6100435f5f1b336100ec60201b60201c565b506100747fa49807205ce4d355092ef5a8a18f56e8913cf4a201fbe287825b095693c21775336100ec60201b60201c565b506100a57fe799c73ff785ac053943f5d98452f7fa0bcf54da67826fc217d6094dec75c5ee336100ec60201b60201c565b508060015f6101000a81548173ffffffffffffffffffffffffffffffffffffffff021916908373ffffffffffffffffffffffffffffffffffffffff160217905550506102d4565b5f6100fd83836101e160201b60201c565b6101d75760015f5f8581526020019081526020015f205f015f8473ffffffffffffffffffffffffffffffffffffffff1673ffffffffffffffffffffffffffffffffffffffff1681526020019081526020015f205f6101000a81548160ff02191690831515021790555061017461024460201b60201c565b73ffffffffffffffffffffffffffffffffffffffff168273ffffffffffffffffffffffffffffffffffffffff16847f2f8788117e7eff1d82e926ec794901d17c78024a50270940304540a733656f0d60405160405180910390a4600190506101db565b5f90505b92915050565b5f5f5f8481526020019081526020015f205f015f8373ffffffffffffffffffffffffffffffffffffffff1673ffffffffffffffffffffffffffffffffffffffff1681526020019081526020015f205f9054906101000a900460ff16905092915050565b5f33905090565b5f5ffd5b5f73ffffffffffffffffffffffffffffffffffffffff82169050919050565b5f6102788261024f565b9050919050565b6102888161026e565b8114610292575f5ffd5b50565b5f815190506102a38161027f565b92915050565b5f602082840312156102be576102bd61024b565b5b5f6102cb84828501610295565b91505092915050565b6150d8806102e15f395ff3fe608060405234801561000f575f5ffd5b50600436106100f3575f3560e01c80633b72be901161009557806391d148541161006457806391d148541461025d578063a217fddf1461028d578063d49895c0146102ab578063d547741f146102db576100f3565b80633b72be90146101fb5780633fe33ef21461022b578063598963661461023557806375b238fc1461023f576100f3565b80632f2ff15d116100d15780632f2ff15d146101755780633013ce291461019157806336568abe146101af5780633af32abf146101cb576100f3565b806301ffc9a7146100f75780630b71f11614610127578063248a9ca314610145575b5f5ffd5b610111600480360381019061010c9190610ad9565b6102f7565b60405161011e9190610b1e565b60405180910390f35b61012f610370565b60405161013c9190610b4f565b60405180910390f35b61015f600480360381019061015a9190610b92565b610394565b60405161016c9190610b4f565b60405180910390f35b61018f600480360381019061018a9190610c17565b6103b0565b005b6101996103d2565b6040516101a69190610cb0565b60405180910390f35b6101c960048036038101906101c49190610c17565b6103f7565b005b6101e560048036038101906101e09190610cc9565b610472565b6040516101f29190610b1e565b60405180910390f35b61021560048036038101906102109190610d88565b6104a4565b6040516102229190610e80565b60405180910390f35b6102336105fe565b005b61023d61066e565b005b6102476106de565b6040516102549190610b4f565b60405180910390f35b61027760048036038101906102729190610c17565b610702565b6040516102849190610b1e565b60405180910390f35b610295610765565b6040516102a29190610b4f565b60405180910390f35b6102c560048036038101906102c09190610e99565b61076b565b6040516102d29190610e80565b60405180910390f35b6102f560048036038101906102f09190610c17565b6107a6565b005b5f7f7965db0b000000000000000000000000000000000000000000000000000000007bffffffffffffffffffffffffffffffffffffffffffffffffffffffff1916827bffffffffffffffffffffffffffffffffffffffffffffffffffffffff191614806103695750610368826107c8565b5b9050919050565b7fe799c73ff785ac053943f5d98452f7fa0bcf54da67826fc217d6094dec75c5ee81565b5f5f5f8381526020019081526020015f20600101549050919050565b6103b982610394565b6103c281610831565b6103cc8383610845565b50505050565b60015f9054906101000a900473ffffffffffffffffffffffffffffffffffffffff1681565b6103ff61092e565b73ffffffffffffffffffffffffffffffffffffffff168173ffffffffffffffffffffffffffffffffffffffff1614610463576040517f6697b23200000000000000000000000000000000000000000000000000000000815260040160405180910390fd5b61046d8282610935565b505050565b5f61049d7fe799c73ff785ac053943f5d98452f7fa0bcf54da67826fc217d6094dec75c5ee83610702565b9050919050565b5f7fa49807205ce4d355092ef5a8a18f56e8913cf4a201fbe287825b095693c217756104cf81610831565b5f33338d8d8d60015f9054906101000a900473ffffffffffffffffffffffffffffffffffffffff168e8e8e8e8e8e60405161050990610a6f565b61051e9c9b9a99989796959493929190610f2d565b604051809103905ff080158015610537573d5f5f3e3d5ffd5b509050600281908060018154018082558091505060019003905f5260205f20015f9091909190916101000a81548173ffffffffffffffffffffffffffffffffffffffff021916908373ffffffffffffffffffffffffffffffffffffffff1602179055508073ffffffffffffffffffffffffffffffffffffffff167f457ce294745fac5ea9a5f91ba2d96295410ca7905889c9c43fc3a04b331e90f18d8d8d6040516105e493929190610fd3565b60405180910390a280925050509998505050505050505050565b6106287fe799c73ff785ac053943f5d98452f7fa0bcf54da67826fc217d6094dec75c5ee33610935565b503373ffffffffffffffffffffffffffffffffffffffff167fde8cf212af7ce38b2840785a2768d97ff2dbf3c21b516961cec0061e134c2a1e60405160405180910390a2565b6106987fe799c73ff785ac053943f5d98452f7fa0bcf54da67826fc217d6094dec75c5ee33610845565b503373ffffffffffffffffffffffffffffffffffffffff167f4790a4adb426ca2345bb5108f6e454eae852a7bf687544cd66a7270dff3a41d660405160405180910390a2565b7fa49807205ce4d355092ef5a8a18f56e8913cf4a201fbe287825b095693c2177581565b5f5f5f8481526020019081526020015f205f015f8373ffffffffffffffffffffffffffffffffffffffff1673ffffffffffffffffffffffffffffffffffffffff1681526020019081526020015f205f9054906101000a900460ff16905092915050565b5f5f1b81565b6002818154811061077a575f80fd5b905f5260205f20015f915054906101000a900473ffffffffffffffffffffffffffffffffffffffff1681565b6107af82610394565b6107b881610831565b6107c28383610935565b50505050565b5f7f01ffc9a7000000000000000000000000000000000000000000000000000000007bffffffffffffffffffffffffffffffffffffffffffffffffffffffff1916827bffffffffffffffffffffffffffffffffffffffffffffffffffffffff1916149050919050565b6108428161083d61092e565b610a1e565b50565b5f6108508383610702565b6109245760015f5f8581526020019081526020015f205f015f8473ffffffffffffffffffffffffffffffffffffffff1673ffffffffffffffffffffffffffffffffffffffff1681526020019081526020015f205f6101000a81548160ff0219169083151502179055506108c161092e565b73ffffffffffffffffffffffffffffffffffffffff168273ffffffffffffffffffffffffffffffffffffffff16847f2f8788117e7eff1d82e926ec794901d17c78024a50270940304540a733656f0d60405160405180910390a460019050610928565b5f90505b92915050565b5f33905090565b5f6109408383610702565b15610a14575f5f5f8581526020019081526020015f205f015f8473ffffffffffffffffffffffffffffffffffffffff1673ffffffffffffffffffffffffffffffffffffffff1681526020019081526020015f205f6101000a81548160ff0219169083151502179055506109b161092e565b73ffffffffffffffffffffffffffffffffffffffff168273ffffffffffffffffffffffffffffffffffffffff16847ff6391f5c32d9c69d2a47ea670b442974b53935d1edc7fd64eb21e047a839171b60405160405180910390a460019050610a18565b5f90505b92915050565b610a288282610702565b610a6b5780826040517fe2517d3f000000000000000000000000000000000000000000000000000000008152600401610a62929190611008565b60405180910390fd5b5050565b6140738061103083390190565b5f5ffd5b5f5ffd5b5f7fffffffff0000000000000000000000000000000000000000000000000000000082169050919050565b610ab881610a84565b8114610ac2575f5ffd5b50565b5f81359050610ad381610aaf565b92915050565b5f60208284031215610aee57610aed610a7c565b5b5f610afb84828501610ac5565b91505092915050565b5f8115159050919050565b610b1881610b04565b82525050565b5f602082019050610b315f830184610b0f565b92915050565b5f819050919050565b610b4981610b37565b82525050565b5f602082019050610b625f830184610b40565b92915050565b610b7181610b37565b8114610b7b575f5ffd5b50565b5f81359050610b8c81610b68565b92915050565b5f60208284031215610ba757610ba6610a7c565b5b5f610bb484828501610b7e565b91505092915050565b5f73ffffffffffffffffffffffffffffffffffffffff82169050919050565b5f610be682610bbd565b9050919050565b610bf681610bdc565b8114610c00575f5ffd5b50565b5f81359050610c1181610bed565b92915050565b5f5f60408385031215610c2d57610c2c610a7c565b5b5f610c3a85828601610b7e565b9250506020610c4b85828601610c03565b9150509250929050565b5f819050919050565b5f610c78610c73610c6e84610bbd565b610c55565b610bbd565b9050919050565b5f610c8982610c5e565b9050919050565b5f610c9a82610c7f565b9050919050565b610caa81610c90565b82525050565b5f602082019050610cc35f830184610ca1565b92915050565b5f60208284031215610cde57610cdd610a7c565b5b5f610ceb84828501610c03565b91505092915050565b5f819050919050565b610d0681610cf4565b8114610d10575f5ffd5b50565b5f81359050610d2181610cfd565b92915050565b5f5ffd5b5f5ffd5b5f5ffd5b5f5f83601f840112610d4857610d47610d27565b5b8235905067ffffffffffffffff811115610d6557610d64610d2b565b5b602083019150836001820283011115610d8157610d80610d2f565b5b9250929050565b5f5f5f5f5f5f5f5f5f60c08a8c031215610da557610da4610a7c565b5b5f610db28c828d01610d13565b9950506020610dc38c828d01610d13565b9850506040610dd48c828d01610c03565b97505060608a013567ffffffffffffffff811115610df557610df4610a80565b5b610e018c828d01610d33565b965096505060808a013567ffffffffffffffff811115610e2457610e23610a80565b5b610e308c828d01610d33565b945094505060a08a013567ffffffffffffffff811115610e5357610e52610a80565b5b610e5f8c828d01610d33565b92509250509295985092959850929598565b610e7a81610bdc565b82525050565b5f602082019050610e935f830184610e71565b92915050565b5f60208284031215610eae57610ead610a7c565b5b5f610ebb84828501610d13565b91505092915050565b610ecd81610cf4565b82525050565b5f82825260208201905092915050565b828183375f83830152505050565b5f601f19601f8301169050919050565b5f610f0c8385610ed3565b9350610f19838584610ee3565b610f2283610ef1565b840190509392505050565b5f61012082019050610f415f83018f610e71565b610f4e602083018e610e71565b610f5b604083018d610ec4565b610f68606083018c610ec4565b610f75608083018b610e71565b610f8260a083018a610e71565b81810360c0830152610f9581888a610f01565b905081810360e0830152610faa818688610f01565b9050818103610100830152610fc0818486610f01565b90509d9c50505050505050505050505050565b5f606082019050610fe65f830186610ec4565b610ff36020830185610ec4565b6110006040830184610e71565b949350505050565b5f60408201905061101b5f830185610e71565b6110286020830184610b40565b939250505056fe610160604052348015610010575f5ffd5b50604051614073380380614073833981810160405281019061003291906106e6565b6040518060400160405280600581526020017f4d79525741000000000000000000000000000000000000000000000000000000815250806040518060400160405280600181526020017f3100000000000000000000000000000000000000000000000000000000000000815250858581600390816100b09190610a05565b5080600490816100c09190610a05565b5050506100d760078361029660201b90919060201c565b61012081815250506100f360088261029660201b90919060201c565b6101408181525050818051906020012060e08181525050808051906020012061010081815250504660a081815250506101306102e360201b60201c565b608081815250503073ffffffffffffffffffffffffffffffffffffffff1660c08173ffffffffffffffffffffffffffffffffffffffff16815250505050506101805f5f1b8a61033d60201b60201c565b506101b17f65d7a28e3265b37a6474929f336521b332c1681b933f6cb9f3376673440d862a8961033d60201b60201c565b5086600c8190555084600d5f6101000a81548173ffffffffffffffffffffffffffffffffffffffff021916908373ffffffffffffffffffffffffffffffffffffffff16021790555083600b5f6101000a81548173ffffffffffffffffffffffffffffffffffffffff021916908373ffffffffffffffffffffffffffffffffffffffff1602179055505f600e819055505f600f8190555085601081905550806011908161025d9190610a05565b50600160125f6101000a81548160ff0219169083600281111561028357610282610ad4565b5b0217905550505050505050505050610c83565b5f6020835110156102b7576102b08361043360201b60201c565b90506102dd565b826102c78361049860201b60201c565b5f0190816102d59190610a05565b5060ff5f1b90505b92915050565b5f7f8b73c3c69bb8fe3d512ecc4cf759cc79239f7b179b0ffacaa9a75d522b39400f60e051610100514630604051602001610322959493929190610b37565b60405160208183030381529060405280519060200120905090565b5f61034e83836104a160201b60201c565b61042957600160065f8581526020019081526020015f205f015f8473ffffffffffffffffffffffffffffffffffffffff1673ffffffffffffffffffffffffffffffffffffffff1681526020019081526020015f205f6101000a81548160ff0219169083151502179055506103c661050560201b60201c565b73ffffffffffffffffffffffffffffffffffffffff168273ffffffffffffffffffffffffffffffffffffffff16847f2f8788117e7eff1d82e926ec794901d17c78024a50270940304540a733656f0d60405160405180910390a46001905061042d565b5f90505b92915050565b5f5f829050601f8151111561047f57826040517f305a27a90000000000000000000000000000000000000000000000000000000081526004016104769190610bd0565b60405180910390fd5b80518161048b90610c1d565b5f1c175f1b915050919050565b5f819050919050565b5f60065f8481526020019081526020015f205f015f8373ffffffffffffffffffffffffffffffffffffffff1673ffffffffffffffffffffffffffffffffffffffff1681526020019081526020015f205f9054906101000a900460ff16905092915050565b5f33905090565b5f604051905090565b5f5ffd5b5f5ffd5b5f73ffffffffffffffffffffffffffffffffffffffff82169050919050565b5f6105468261051d565b9050919050565b6105568161053c565b8114610560575f5ffd5b50565b5f815190506105718161054d565b92915050565b5f819050919050565b61058981610577565b8114610593575f5ffd5b50565b5f815190506105a481610580565b92915050565b5f5ffd5b5f5ffd5b5f601f19601f8301169050919050565b7f4e487b71000000000000000000000000000000000000000000000000000000005f52604160045260245ffd5b6105f8826105b2565b810181811067ffffffffffffffff82111715610617576106166105c2565b5b80604052505050565b5f61062961050c565b905061063582826105ef565b919050565b5f67ffffffffffffffff821115610654576106536105c2565b5b61065d826105b2565b9050602081019050919050565b8281835e5f83830152505050565b5f61068a6106858461063a565b610620565b9050828152602081018484840111156106a6576106a56105ae565b5b6106b184828561066a565b509392505050565b5f82601f8301126106cd576106cc6105aa565b5b81516106dd848260208601610678565b91505092915050565b5f5f5f5f5f5f5f5f5f6101208a8c03121561070457610703610515565b5b5f6107118c828d01610563565b99505060206107228c828d01610563565b98505060406107338c828d01610596565b97505060606107448c828d01610596565b96505060806107558c828d01610563565b95505060a06107668c828d01610563565b94505060c08a015167ffffffffffffffff81111561078757610786610519565b5b6107938c828d016106b9565b93505060e08a015167ffffffffffffffff8111156107b4576107b3610519565b5b6107c08c828d016106b9565b9250506101008a015167ffffffffffffffff8111156107e2576107e1610519565b5b6107ee8c828d016106b9565b9150509295985092959850929598565b5f81519050919050565b7f4e487b71000000000000000000000000000000000000000000000000000000005f52602260045260245ffd5b5f600282049050600182168061084c57607f821691505b60208210810361085f5761085e610808565b5b50919050565b5f819050815f5260205f209050919050565b5f6020601f8301049050919050565b5f82821b905092915050565b5f600883026108c17fffffffffffffffffffffffffffffffffffffffffffffffffffffffffffffffff82610886565b6108cb8683610886565b95508019841693508086168417925050509392505050565b5f819050919050565b5f6109066109016108fc84610577565b6108e3565b610577565b9050919050565b5f819050919050565b61091f836108ec565b61093361092b8261090d565b848454610892565b825550505050565b5f5f905090565b61094a61093b565b610955818484610916565b505050565b5b818110156109785761096d5f82610942565b60018101905061095b565b5050565b601f8211156109bd5761098e81610865565b61099784610877565b810160208510156109a6578190505b6109ba6109b285610877565b83018261095a565b50505b505050565b5f82821c905092915050565b5f6109dd5f19846008026109c2565b1980831691505092915050565b5f6109f583836109ce565b9150826002028217905092915050565b610a0e826107fe565b67ffffffffffffffff811115610a2757610a266105c2565b5b610a318254610835565b610a3c82828561097c565b5f60209050601f831160018114610a6d575f8415610a5b578287015190505b610a6585826109ea565b865550610acc565b601f198416610a7b86610865565b5f5b82811015610aa257848901518255600182019150602085019450602081019050610a7d565b86831015610abf5784890151610abb601f8916826109ce565b8355505b6001600288020188555050505b505050505050565b7f4e487b71000000000000000000000000000000000000000000000000000000005f52602160045260245ffd5b5f819050919050565b610b1381610b01565b82525050565b610b2281610577565b82525050565b610b318161053c565b82525050565b5f60a082019050610b4a5f830188610b0a565b610b576020830187610b0a565b610b646040830186610b0a565b610b716060830185610b19565b610b7e6080830184610b28565b9695505050505050565b5f82825260208201905092915050565b5f610ba2826107fe565b610bac8185610b88565b9350610bbc81856020860161066a565b610bc5816105b2565b840191505092915050565b5f6020820190508181035f830152610be88184610b98565b905092915050565b5f81519050919050565b5f819050602082019050919050565b5f610c148251610b01565b80915050919050565b5f610c2782610bf0565b82610c3184610bfa565b9050610c3c81610c09565b92506020821015610c7c57610c777fffffffffffffffffffffffffffffffffffffffffffffffffffffffffffffffff83602003600802610886565b831692505b5050919050565b60805160a05160c05160e05161010051610120516101405161339f610cd45f395f611aed01525f611ab201525f611e2e01525f611e0d01525f61178401525f6117da01525f611803015261339f5ff3fe608060405234801561000f575f5ffd5b5060043610610225575f3560e01c80635c975abb1161012e578063a217fddf116100b6578063e63ab1e91161007a578063e63ab1e91461065b578063e73faa2d14610679578063efcb610914610697578063f4b0b756146106b5578063f9020e33146106d357610225565b8063a217fddf146105a5578063a9059cbb146105c3578063d505accf146105f3578063d547741f1461060f578063dd62ed3e1461062b57610225565b80638456cb59116100fd5780638456cb591461050b57806384b0196e146105155780639106d7ba1461053957806391d148541461055757806395d89b411461058757610225565b80635c975abb1461047157806370a082311461048f57806379cc6790146104bf5780637ecebe00146104db57610225565b80632f2ff15d116101b157806336568abe1161018057806336568abe146103f35780633bc5de301461040f5780633f4ba83a1461042d57806342966c68146104375780635216aeec1461045357610225565b80632f2ff15d1461037d5780633013ce2914610399578063313ce567146103b75780633644e515146103d557610225565b8063095ea7b3116101f8578063095ea7b3146102b357806318160ddd146102e357806323b872dd14610301578063248a9ca3146103315780632afcf4801461036157610225565b806301ffc9a714610229578063047fc9aa14610259578063048f5abf1461027757806306fdde0314610295575b5f5ffd5b610243600480360381019061023e9190612590565b6106f1565b60405161025091906125d5565b60405180910390f35b61026161076a565b60405161026e9190612606565b60405180910390f35b61027f610770565b60405161028c919061268f565b60405180910390f35b61029d6107fc565b6040516102aa919061268f565b60405180910390f35b6102cd60048036038101906102c89190612733565b61088c565b6040516102da91906125d5565b60405180910390f35b6102eb6108ae565b6040516102f89190612606565b60405180910390f35b61031b60048036038101906103169190612771565b6108b7565b60405161032891906125d5565b60405180910390f35b61034b600480360381019061034691906127f4565b6108e5565b604051610358919061282e565b60405180910390f35b61037b60048036038101906103769190612847565b610902565b005b61039760048036038101906103929190612872565b610c97565b005b6103a1610cb9565b6040516103ae919061290b565b60405180910390f35b6103bf610cde565b6040516103cc919061293f565b60405180910390f35b6103dd610ce6565b6040516103ea919061282e565b60405180910390f35b61040d60048036038101906104089190612872565b610cf4565b005b610417610d6f565b6040516104249190612add565b60405180910390f35b610435610e79565b005b610451600480360381019061044c9190612847565b610eae565b005b61045b610ec2565b6040516104689190612606565b60405180910390f35b610479610ec8565b60405161048691906125d5565b60405180910390f35b6104a960048036038101906104a49190612afd565b610edd565b6040516104b69190612606565b60405180910390f35b6104d960048036038101906104d49190612733565b610f22565b005b6104f560048036038101906104f09190612afd565b610f42565b6040516105029190612606565b60405180910390f35b610513610f53565b005b61051d610f88565b6040516105309796959493929190612c19565b60405180910390f35b61054161102d565b60405161054e9190612606565b60405180910390f35b610571600480360381019061056c9190612872565b611033565b60405161057e91906125d5565b60405180910390f35b61058f611097565b60405161059c919061268f565b60405180910390f35b6105ad611127565b6040516105ba919061282e565b60405180910390f35b6105dd60048036038101906105d89190612733565b61112d565b6040516105ea91906125d5565b60405180910390f35b61060d60048036038101906106089190612cc5565b61114f565b005b61062960048036038101906106249190612872565b611294565b005b61064560048036038101906106409190612d62565b6112b6565b6040516106529190612606565b60405180910390f35b610663611338565b604051610670919061282e565b60405180910390f35b61068161135c565b60405161068e9190612606565b60405180910390f35b61069f611362565b6040516106ac9190612dc0565b60405180910390f35b6106bd611387565b6040516106ca9190612dd9565b60405180910390f35b6106db6113ac565b6040516106e89190612e01565b60405180910390f35b5f7f7965db0b000000000000000000000000000000000000000000000000000000007bffffffffffffffffffffffffffffffffffffffffffffffffffffffff1916827bffffffffffffffffffffffffffffffffffffffffffffffffffffffff191614806107635750610762826113be565b5b9050919050565b60105481565b6011805461077d90612e47565b80601f01602080910402602001604051908101604052809291908181526020018280546107a990612e47565b80156107f45780601f106107cb576101008083540402835291602001916107f4565b820191905f5260205f20905b8154815290600101906020018083116107d757829003601f168201915b505050505081565b60606003805461080b90612e47565b80601f016020809104026020016040519081016040528092919081815260200182805461083790612e47565b80156108825780601f1061085957610100808354040283529160200191610882565b820191905f5260205f20905b81548152906001019060200180831161086557829003601f168201915b5050505050905090565b5f5f610896611427565b90506108a381858561142e565b600191505092915050565b5f600254905090565b5f5f6108c1611427565b90506108ce858285611440565b6108d98585856114d3565b60019150509392505050565b5f60065f8381526020019081526020015f20600101549050919050565b61090a6115c3565b5f810361094c576040517f08c379a000000000000000000000000000000000000000000000000000000000815260040161094390612ec1565b60405180910390fd5b600160028111156109605761095f6129af565b5b60125f9054906101000a900460ff166002811115610981576109806129af565b5b146109c1576040517f08c379a00000000000000000000000000000000000000000000000000000000081526004016109b890612f29565b60405180910390fd5b600a5f9054906101000a900473ffffffffffffffffffffffffffffffffffffffff1673ffffffffffffffffffffffffffffffffffffffff16633af32abf336040518263ffffffff1660e01b8152600401610a1b9190612dd9565b602060405180830381865afa158015610a36573d5f5f3e3d5ffd5b505050506040513d601f19601f82011682018060405250810190610a5a9190612f71565b610a99576040517f08c379a0000000000000000000000000000000000000000000000000000000008152600401610a9090612fe6565b60405180910390fd5b600b5f9054906101000a900473ffffffffffffffffffffffffffffffffffffffff1673ffffffffffffffffffffffffffffffffffffffff166323b872dd3330600c5485610ae69190613031565b6040518463ffffffff1660e01b8152600401610b0493929190613072565b6020604051808303815f875af1158015610b20573d5f5f3e3d5ffd5b505050506040513d601f19601f82011682018060405250810190610b449190612f71565b610b83576040517f08c379a0000000000000000000000000000000000000000000000000000000008152600401610b7a906130f1565b60405180910390fd5b601054600f5482610b94919061310f565b1115610bad57600f54601054610baa9190613142565b90505b610bb73382611604565b600c5481610bc59190613031565b600e5f828254610bd5919061310f565b9250508190555080600f5f828254610bed919061310f565b92505081905550601054600f5403610c2a57600260125f6101000a81548160ff02191690836002811115610c2457610c236129af565b5b02179055505b3373ffffffffffffffffffffffffffffffffffffffff167fdf4dad977f4132cfe027239a83c11a0ee7e3fbeba17d82307144c460d5be5e5e82600e54600f5460105460125f9054906101000a900460ff16604051610c8c959493929190613175565b60405180910390a250565b610ca0826108e5565b610ca981611683565b610cb38383611697565b50505050565b600b5f9054906101000a900473ffffffffffffffffffffffffffffffffffffffff1681565b5f6012905090565b5f610cef611781565b905090565b610cfc611427565b73ffffffffffffffffffffffffffffffffffffffff168173ffffffffffffffffffffffffffffffffffffffff1614610d60576040517f6697b23200000000000000000000000000000000000000000000000000000000815260040160405180910390fd5b610d6a8282611837565b505050565b610d776124e5565b5f604051806101000160405280610d8c6107fc565b8152602001610d99611097565b815260200160118054610dab90612e47565b80601f0160208091040260200160405190810160405280929190818152602001828054610dd790612e47565b8015610e225780601f10610df957610100808354040283529160200191610e22565b820191905f5260205f20905b815481529060010190602001808311610e0557829003601f168201915b50505050508152602001600c548152602001600e548152602001600f548152602001601054815260200160125f9054906101000a900460ff166002811115610e6d57610e6c6129af565b5b81525090508091505090565b7f65d7a28e3265b37a6474929f336521b332c1681b933f6cb9f3376673440d862a610ea381611683565b610eab611921565b50565b610ebf610eb9611427565b82611982565b50565b600e5481565b5f60055f9054906101000a900460ff16905090565b5f5f5f8373ffffffffffffffffffffffffffffffffffffffff1673ffffffffffffffffffffffffffffffffffffffff1681526020019081526020015f20549050919050565b610f3482610f2e611427565b83611440565b610f3e8282611982565b5050565b5f610f4c82611a01565b9050919050565b7f65d7a28e3265b37a6474929f336521b332c1681b933f6cb9f3376673440d862a610f7d81611683565b610f85611a47565b50565b5f6060805f5f5f6060610f99611aa9565b610fa1611ae4565b46305f5f1b5f67ffffffffffffffff811115610fc057610fbf6131c6565b5b604051908082528060200260200182016040528015610fee5781602001602082028036833780820191505090505b507f0f00000000000000000000000000000000000000000000000000000000000000959493929190965096509650965096509650965090919293949596565b600f5481565b5f60065f8481526020019081526020015f205f015f8373ffffffffffffffffffffffffffffffffffffffff1673ffffffffffffffffffffffffffffffffffffffff1681526020019081526020015f205f9054906101000a900460ff16905092915050565b6060600480546110a690612e47565b80601f01602080910402602001604051908101604052809291908181526020018280546110d290612e47565b801561111d5780601f106110f45761010080835404028352916020019161111d565b820191905f5260205f20905b81548152906001019060200180831161110057829003601f168201915b5050505050905090565b5f5f1b81565b5f5f611137611427565b90506111448185856114d3565b600191505092915050565b8342111561119457836040517f6279130200000000000000000000000000000000000000000000000000000000815260040161118b9190612606565b60405180910390fd5b5f7f6e71edae12b1b97f4d1f60370fef10105fa2faae0126114a169c64845d6126c98888886111c28c611b1f565b896040516020016111d8969594939291906131f3565b6040516020818303038152906040528051906020012090505f6111fa82611b72565b90505f61120982878787611b8b565b90508973ffffffffffffffffffffffffffffffffffffffff168173ffffffffffffffffffffffffffffffffffffffff161461127d57808a6040517f4b800e46000000000000000000000000000000000000000000000000000000008152600401611274929190613252565b60405180910390fd5b6112888a8a8a61142e565b50505050505050505050565b61129d826108e5565b6112a681611683565b6112b08383611837565b50505050565b5f60015f8473ffffffffffffffffffffffffffffffffffffffff1673ffffffffffffffffffffffffffffffffffffffff1681526020019081526020015f205f8373ffffffffffffffffffffffffffffffffffffffff1673ffffffffffffffffffffffffffffffffffffffff1681526020019081526020015f2054905092915050565b7f65d7a28e3265b37a6474929f336521b332c1681b933f6cb9f3376673440d862a81565b600c5481565b600a5f9054906101000a900473ffffffffffffffffffffffffffffffffffffffff1681565b600d5f9054906101000a900473ffffffffffffffffffffffffffffffffffffffff1681565b60125f9054906101000a900460ff1681565b5f7f01ffc9a7000000000000000000000000000000000000000000000000000000007bffffffffffffffffffffffffffffffffffffffffffffffffffffffff1916827bffffffffffffffffffffffffffffffffffffffffffffffffffffffff1916149050919050565b5f33905090565b61143b8383836001611bb9565b505050565b5f61144b84846112b6565b90507fffffffffffffffffffffffffffffffffffffffffffffffffffffffffffffffff8110156114cd57818110156114be578281836040517ffb8f41b20000000000000000000000000000000000000000000000000000000081526004016114b593929190613279565b60405180910390fd5b6114cc84848484035f611bb9565b5b50505050565b5f73ffffffffffffffffffffffffffffffffffffffff168373ffffffffffffffffffffffffffffffffffffffff1603611543575f6040517f96c6fd1e00000000000000000000000000000000000000000000000000000000815260040161153a9190612dd9565b60405180910390fd5b5f73ffffffffffffffffffffffffffffffffffffffff168273ffffffffffffffffffffffffffffffffffffffff16036115b3575f6040517fec442f050000000000000000000000000000000000000000000000000000000081526004016115aa9190612dd9565b60405180910390fd5b6115be838383611d88565b505050565b6115cb610ec8565b15611602576040517fd93c066500000000000000000000000000000000000000000000000000000000815260040160405180910390fd5b565b5f73ffffffffffffffffffffffffffffffffffffffff168273ffffffffffffffffffffffffffffffffffffffff1603611674575f6040517fec442f0500000000000000000000000000000000000000000000000000000000815260040161166b9190612dd9565b60405180910390fd5b61167f5f8383611d88565b5050565b6116948161168f611427565b611d98565b50565b5f6116a28383611033565b61177757600160065f8581526020019081526020015f205f015f8473ffffffffffffffffffffffffffffffffffffffff1673ffffffffffffffffffffffffffffffffffffffff1681526020019081526020015f205f6101000a81548160ff021916908315150217905550611714611427565b73ffffffffffffffffffffffffffffffffffffffff168273ffffffffffffffffffffffffffffffffffffffff16847f2f8788117e7eff1d82e926ec794901d17c78024a50270940304540a733656f0d60405160405180910390a46001905061177b565b5f90505b92915050565b5f7f000000000000000000000000000000000000000000000000000000000000000073ffffffffffffffffffffffffffffffffffffffff163073ffffffffffffffffffffffffffffffffffffffff161480156117fc57507f000000000000000000000000000000000000000000000000000000000000000046145b15611829577f00000000000000000000000000000000000000000000000000000000000000009050611834565b611831611de9565b90505b90565b5f6118428383611033565b15611917575f60065f8581526020019081526020015f205f015f8473ffffffffffffffffffffffffffffffffffffffff1673ffffffffffffffffffffffffffffffffffffffff1681526020019081526020015f205f6101000a81548160ff0219169083151502179055506118b4611427565b73ffffffffffffffffffffffffffffffffffffffff168273ffffffffffffffffffffffffffffffffffffffff16847ff6391f5c32d9c69d2a47ea670b442974b53935d1edc7fd64eb21e047a839171b60405160405180910390a46001905061191b565b5f90505b92915050565b611929611e7e565b5f60055f6101000a81548160ff0219169083151502179055507f5db9ee0a495bf2e6ff9c91a7834c1ba4fdd244a5e8aa4e537bd38aeae4b073aa61196b611427565b6040516119789190612dd9565b60405180910390a1565b5f73ffffffffffffffffffffffffffffffffffffffff168273ffffffffffffffffffffffffffffffffffffffff16036119f2575f6040517f96c6fd1e0000000000000000000000000000000000000000000000000000000081526004016119e99190612dd9565b60405180910390fd5b6119fd825f83611d88565b5050565b5f60095f8373ffffffffffffffffffffffffffffffffffffffff1673ffffffffffffffffffffffffffffffffffffffff1681526020019081526020015f20549050919050565b611a4f6115c3565b600160055f6101000a81548160ff0219169083151502179055507f62e78cea01bee320cd4e420270b5ea74000d11b0c9f74754ebdbfc544b05a258611a92611427565b604051611a9f9190612dd9565b60405180910390a1565b6060611adf60077f0000000000000000000000000000000000000000000000000000000000000000611ebe90919063ffffffff16565b905090565b6060611b1a60087f0000000000000000000000000000000000000000000000000000000000000000611ebe90919063ffffffff16565b905090565b5f60095f8373ffffffffffffffffffffffffffffffffffffffff1673ffffffffffffffffffffffffffffffffffffffff1681526020019081526020015f205f815480929190600101919050559050919050565b5f611b84611b7e611781565b83611f6b565b9050919050565b5f5f5f5f611b9b88888888611fab565b925092509250611bab8282612092565b829350505050949350505050565b5f73ffffffffffffffffffffffffffffffffffffffff168473ffffffffffffffffffffffffffffffffffffffff1603611c29575f6040517fe602df05000000000000000000000000000000000000000000000000000000008152600401611c209190612dd9565b60405180910390fd5b5f73ffffffffffffffffffffffffffffffffffffffff168373ffffffffffffffffffffffffffffffffffffffff1603611c99575f6040517f94280d62000000000000000000000000000000000000000000000000000000008152600401611c909190612dd9565b60405180910390fd5b8160015f8673ffffffffffffffffffffffffffffffffffffffff1673ffffffffffffffffffffffffffffffffffffffff1681526020019081526020015f205f8573ffffffffffffffffffffffffffffffffffffffff1673ffffffffffffffffffffffffffffffffffffffff1681526020019081526020015f20819055508015611d82578273ffffffffffffffffffffffffffffffffffffffff168473ffffffffffffffffffffffffffffffffffffffff167f8c5be1e5ebec7d5bd14f71427d1e84f3dd0314c0f7b2291e5b200ac8c7c3b92584604051611d799190612606565b60405180910390a35b50505050565b611d938383836121f4565b505050565b611da28282611033565b611de55780826040517fe2517d3f000000000000000000000000000000000000000000000000000000008152600401611ddc9291906132ae565b60405180910390fd5b5050565b5f7f8b73c3c69bb8fe3d512ecc4cf759cc79239f7b179b0ffacaa9a75d522b39400f7f00000000000000000000000000000000000000000000000000000000000000007f00000000000000000000000000000000000000000000000000000000000000004630604051602001611e639594939291906132d5565b60405160208183030381529060405280519060200120905090565b611e86610ec8565b611ebc576040517f8dfc202b00000000000000000000000000000000000000000000000000000000815260040160405180910390fd5b565b606060ff5f1b8314611eda57611ed38361220c565b9050611f65565b818054611ee690612e47565b80601f0160208091040260200160405190810160405280929190818152602001828054611f1290612e47565b8015611f5d5780601f10611f3457610100808354040283529160200191611f5d565b820191905f5260205f20905b815481529060010190602001808311611f4057829003601f168201915b505050505090505b92915050565b5f6040517f190100000000000000000000000000000000000000000000000000000000000081528360028201528260228201526042812091505092915050565b5f5f5f7f7fffffffffffffffffffffffffffffff5d576e7357a4501ddfe92f46681b20a0845f1c1115611fe7575f600385925092509250612088565b5f6001888888886040515f815260200160405260405161200a9493929190613326565b6020604051602081039080840390855afa15801561202a573d5f5f3e3d5ffd5b5050506020604051035190505f73ffffffffffffffffffffffffffffffffffffffff168173ffffffffffffffffffffffffffffffffffffffff160361207b575f60015f5f1b93509350935050612088565b805f5f5f1b935093509350505b9450945094915050565b5f60038111156120a5576120a46129af565b5b8260038111156120b8576120b76129af565b5b03156121f057600160038111156120d2576120d16129af565b5b8260038111156120e5576120e46129af565b5b0361211c576040517ff645eedf00000000000000000000000000000000000000000000000000000000815260040160405180910390fd5b600260038111156121305761212f6129af565b5b826003811115612143576121426129af565b5b0361218757805f1c6040517ffce698f700000000000000000000000000000000000000000000000000000000815260040161217e9190612606565b60405180910390fd5b60038081111561219a576121996129af565b5b8260038111156121ad576121ac6129af565b5b036121ef57806040517fd78bce0c0000000000000000000000000000000000000000000000000000000081526004016121e6919061282e565b60405180910390fd5b5b5050565b6121fc6115c3565b61220783838361227e565b505050565b60605f61221883612497565b90505f602067ffffffffffffffff811115612236576122356131c6565b5b6040519080825280601f01601f1916602001820160405280156122685781602001600182028036833780820191505090505b5090508181528360208201528092505050919050565b5f73ffffffffffffffffffffffffffffffffffffffff168373ffffffffffffffffffffffffffffffffffffffff16036122ce578060025f8282546122c2919061310f565b9250508190555061239c565b5f5f5f8573ffffffffffffffffffffffffffffffffffffffff1673ffffffffffffffffffffffffffffffffffffffff1681526020019081526020015f2054905081811015612357578381836040517fe450d38c00000000000000000000000000000000000000000000000000000000815260040161234e93929190613279565b60405180910390fd5b8181035f5f8673ffffffffffffffffffffffffffffffffffffffff1673ffffffffffffffffffffffffffffffffffffffff1681526020019081526020015f2081905550505b5f73ffffffffffffffffffffffffffffffffffffffff168273ffffffffffffffffffffffffffffffffffffffff16036123e3578060025f828254039250508190555061242d565b805f5f8473ffffffffffffffffffffffffffffffffffffffff1673ffffffffffffffffffffffffffffffffffffffff1681526020019081526020015f205f82825401925050819055505b8173ffffffffffffffffffffffffffffffffffffffff168373ffffffffffffffffffffffffffffffffffffffff167fddf252ad1be2c89b69c2b068fc378daa952ba7f163c4a11628f55a4df523b3ef8360405161248a9190612606565b60405180910390a3505050565b5f5f60ff835f1c169050601f8111156124dc576040517fb3512b0c00000000000000000000000000000000000000000000000000000000815260040160405180910390fd5b80915050919050565b6040518061010001604052806060815260200160608152602001606081526020015f81526020015f81526020015f81526020015f81526020015f6002811115612531576125306129af565b5b81525090565b5f5ffd5b5f7fffffffff0000000000000000000000000000000000000000000000000000000082169050919050565b61256f8161253b565b8114612579575f5ffd5b50565b5f8135905061258a81612566565b92915050565b5f602082840312156125a5576125a4612537565b5b5f6125b28482850161257c565b91505092915050565b5f8115159050919050565b6125cf816125bb565b82525050565b5f6020820190506125e85f8301846125c6565b92915050565b5f819050919050565b612600816125ee565b82525050565b5f6020820190506126195f8301846125f7565b92915050565b5f81519050919050565b5f82825260208201905092915050565b8281835e5f83830152505050565b5f601f19601f8301169050919050565b5f6126618261261f565b61266b8185612629565b935061267b818560208601612639565b61268481612647565b840191505092915050565b5f6020820190508181035f8301526126a78184612657565b905092915050565b5f73ffffffffffffffffffffffffffffffffffffffff82169050919050565b5f6126d8826126af565b9050919050565b6126e8816126ce565b81146126f2575f5ffd5b50565b5f81359050612703816126df565b92915050565b612712816125ee565b811461271c575f5ffd5b50565b5f8135905061272d81612709565b92915050565b5f5f6040838503121561274957612748612537565b5b5f612756858286016126f5565b92505060206127678582860161271f565b9150509250929050565b5f5f5f6060848603121561278857612787612537565b5b5f612795868287016126f5565b93505060206127a6868287016126f5565b92505060406127b78682870161271f565b9150509250925092565b5f819050919050565b6127d3816127c1565b81146127dd575f5ffd5b50565b5f813590506127ee816127ca565b92915050565b5f6020828403121561280957612808612537565b5b5f612816848285016127e0565b91505092915050565b612828816127c1565b82525050565b5f6020820190506128415f83018461281f565b92915050565b5f6020828403121561285c5761285b612537565b5b5f6128698482850161271f565b91505092915050565b5f5f6040838503121561288857612887612537565b5b5f612895858286016127e0565b92505060206128a6858286016126f5565b9150509250929050565b5f819050919050565b5f6128d36128ce6128c9846126af565b6128b0565b6126af565b9050919050565b5f6128e4826128b9565b9050919050565b5f6128f5826128da565b9050919050565b612905816128eb565b82525050565b5f60208201905061291e5f8301846128fc565b92915050565b5f60ff82169050919050565b61293981612924565b82525050565b5f6020820190506129525f830184612930565b92915050565b5f82825260208201905092915050565b5f6129728261261f565b61297c8185612958565b935061298c818560208601612639565b61299581612647565b840191505092915050565b6129a9816125ee565b82525050565b7f4e487b71000000000000000000000000000000000000000000000000000000005f52602160045260245ffd5b600381106129ed576129ec6129af565b5b50565b5f8190506129fd826129dc565b919050565b5f612a0c826129f0565b9050919050565b612a1c81612a02565b82525050565b5f61010083015f8301518482035f860152612a3d8282612968565b91505060208301518482036020860152612a578282612968565b91505060408301518482036040860152612a718282612968565b9150506060830151612a8660608601826129a0565b506080830151612a9960808601826129a0565b5060a0830151612aac60a08601826129a0565b5060c0830151612abf60c08601826129a0565b5060e0830151612ad260e0860182612a13565b508091505092915050565b5f6020820190508181035f830152612af58184612a22565b905092915050565b5f60208284031215612b1257612b11612537565b5b5f612b1f848285016126f5565b91505092915050565b5f7fff0000000000000000000000000000000000000000000000000000000000000082169050919050565b612b5c81612b28565b82525050565b612b6b816126ce565b82525050565b5f81519050919050565b5f82825260208201905092915050565b5f819050602082019050919050565b5f612ba583836129a0565b60208301905092915050565b5f602082019050919050565b5f612bc782612b71565b612bd18185612b7b565b9350612bdc83612b8b565b805f5b83811015612c0c578151612bf38882612b9a565b9750612bfe83612bb1565b925050600181019050612bdf565b5085935050505092915050565b5f60e082019050612c2c5f83018a612b53565b8181036020830152612c3e8189612657565b90508181036040830152612c528188612657565b9050612c6160608301876125f7565b612c6e6080830186612b62565b612c7b60a083018561281f565b81810360c0830152612c8d8184612bbd565b905098975050505050505050565b612ca481612924565b8114612cae575f5ffd5b50565b5f81359050612cbf81612c9b565b92915050565b5f5f5f5f5f5f5f60e0888a031215612ce057612cdf612537565b5b5f612ced8a828b016126f5565b9750506020612cfe8a828b016126f5565b9650506040612d0f8a828b0161271f565b9550506060612d208a828b0161271f565b9450506080612d318a828b01612cb1565b93505060a0612d428a828b016127e0565b92505060c0612d538a828b016127e0565b91505092959891949750929550565b5f5f60408385031215612d7857612d77612537565b5b5f612d85858286016126f5565b9250506020612d96858286016126f5565b9150509250929050565b5f612daa826128da565b9050919050565b612dba81612da0565b82525050565b5f602082019050612dd35f830184612db1565b92915050565b5f602082019050612dec5f830184612b62565b92915050565b612dfb81612a02565b82525050565b5f602082019050612e145f830184612df2565b92915050565b7f4e487b71000000000000000000000000000000000000000000000000000000005f52602260045260245ffd5b5f6002820490506001821680612e5e57607f821691505b602082108103612e7157612e70612e1a565b5b50919050565b7f496e76616c696420616d6f756e740000000000000000000000000000000000005f82015250565b5f612eab600e83612629565b9150612eb682612e77565b602082019050919050565b5f6020820190508181035f830152612ed881612e9f565b9050919050565b7f53616c65206e6f742061637469766500000000000000000000000000000000005f82015250565b5f612f13600f83612629565b9150612f1e82612edf565b602082019050919050565b5f6020820190508181035f830152612f4081612f07565b9050919050565b612f50816125bb565b8114612f5a575f5ffd5b50565b5f81519050612f6b81612f47565b92915050565b5f60208284031215612f8657612f85612537565b5b5f612f9384828501612f5d565b91505092915050565b7f4e6f742077686974656c697374656400000000000000000000000000000000005f82015250565b5f612fd0600f83612629565b9150612fdb82612f9c565b602082019050919050565b5f6020820190508181035f830152612ffd81612fc4565b9050919050565b7f4e487b71000000000000000000000000000000000000000000000000000000005f52601160045260245ffd5b5f61303b826125ee565b9150613046836125ee565b9250828202613054816125ee565b9150828204841483151761306b5761306a613004565b5b5092915050565b5f6060820190506130855f830186612b62565b6130926020830185612b62565b61309f60408301846125f7565b949350505050565b7f5472616e73666572206661696c656400000000000000000000000000000000005f82015250565b5f6130db600f83612629565b91506130e6826130a7565b602082019050919050565b5f6020820190508181035f830152613108816130cf565b9050919050565b5f613119826125ee565b9150613124836125ee565b925082820190508082111561313c5761313b613004565b5b92915050565b5f61314c826125ee565b9150613157836125ee565b925082820390508181111561316f5761316e613004565b5b92915050565b5f60a0820190506131885f8301886125f7565b61319560208301876125f7565b6131a260408301866125f7565b6131af60608301856125f7565b6131bc6080830184612df2565b9695505050505050565b7f4e487b71000000000000000000000000000000000000000000000000000000005f52604160045260245ffd5b5f60c0820190506132065f83018961281f565b6132136020830188612b62565b6132206040830187612b62565b61322d60608301866125f7565b61323a60808301856125f7565b61324760a08301846125f7565b979650505050505050565b5f6040820190506132655f830185612b62565b6132726020830184612b62565b9392505050565b5f60608201905061328c5f830186612b62565b61329960208301856125f7565b6132a660408301846125f7565b949350505050565b5f6040820190506132c15f830185612b62565b6132ce602083018461281f565b9392505050565b5f60a0820190506132e85f83018861281f565b6132f5602083018761281f565b613302604083018661281f565b61330f60608301856125f7565b61331c6080830184612b62565b9695505050505050565b5f6080820190506133395f83018761281f565b6133466020830186612930565b613353604083018561281f565b613360606083018461281f565b9594505050505056fea26469706673582212202c0c57a7bb1e53f7e770f483bdf3025995e70f306c933134f0a9ae4656cc334564736f6c634300081e0033a2646970667358221220182764b741f30a68e1e7b0626d44404728d681e833d59863e723d46f7e72aa3964736f6c634300081e0033","linkReferences":{}},"methodIdentifiers":{"ADMIN_ROLE()":"75b238fc","DEFAULT_ADMIN_ROLE()":"a217fddf","WHITELISTED()":"0b71f116","addToWhitelist()":"59896366","deploySportsToken(uint256,uint256,address,string,string,string)":"3b72be90","getRoleAdmin(bytes32)":"248a9ca3","grantRole(bytes32,address)":"2f2ff15d","hasRole(bytes32,address)":"91d14854","isWhitelisted(address)":"3af32abf","paymentToken()":"3013ce29","removeFromWhitelist()":"3fe33ef2","renounceRole(bytes32,address)":"36568abe","revokeRole(bytes32,address)":"d547741f","sportsTokens(uint256)":"d49895c0","supportsInterface(bytes4)":"01ffc9a7"},"id":27}