{"abi":[{"type":"constructor","inputs":[{"name":"_paymentToken","type":"address","internalType":"address"}],"stateMutability":"nonpayable"},{"type":"function","name":"ADMIN_ROLE","inputs":[],"outputs":[{"name":"","type":"bytes32","internalType":"bytes32"}],"stateMutability":"view"},{"type":"function","name":"DEFAULT_ADMIN_ROLE","inputs":[],"outputs":[{"name":"","type":"bytes32","internalType":"bytes32"}],"stateMutability":"view"},{"type":"function","name":"WHITELISTED","inputs":[],"outputs":[{"name":"","type":"bytes32","internalType":"bytes32"}],"stateMutability":"view"},{"type":"function","name":"addToWhitelist","inputs":[],"outputs":[],"stateMutability":"nonpayable"},{"type":"function","name":"deploySportsToken","inputs":[{"name":"_unitPrice","type":"uint256","internalType":"uint256"},{"name":"_supply","type":"uint256","internalType":"uint256"},{"name":"_minimumInvestment","type":"uint256","internalType":"uint256"},{"name":"_reciever","type":"address","internalType":"address"},{"name":"_name","type":"string","internalType":"string"},{"name":"_symbol","type":"string","internalType":"string"},{"name":"_initial_uri","type":"string","internalType":"string"}],"outputs":[{"name":"","type":"address","internalType":"address"}],"stateMutability":"nonpayable"},{"type":"function","name":"getRoleAdmin","inputs":[{"name":"role","type":"bytes32","internalType":"bytes32"}],"outputs":[{"name":"","type":"bytes32","internalType":"bytes32"}],"stateMutability":"view"},{"type":"function","name":"grantRole","inputs":[{"name":"role","type":"bytes32","internalType":"bytes32"},{"name":"account","type":"address","internalType":"address"}],"outputs":[],"stateMutability":"nonpayable"},{"type":"function","name":"hasRole","inputs":[{"name":"role","type":"bytes32","internalType":"bytes32"},{"name":"account","type":"address","internalType":"address"}],"outputs":[{"name":"","type":"bool","internalType":"bool"}],"stateMutability":"view"},{"type":"function","name":"isWhitelisted","inputs":[{"name":"_address","type":"address","internalType":"address"}],"outputs":[{"name":"","type":"bool","internalType":"bool"}],"stateMutability":"view"},{"type":"function","name":"paymentToken","inputs":[],"outputs":[{"name":"","type":"address","internalType":"contract IERC20"}],"stateMutability":"view"},{"type":"function","name":"removeFromWhitelist","inputs":[],"outputs":[],"stateMutability":"nonpayable"},{"type":"function","name":"renounceRole","inputs":[{"name":"role","type":"bytes32","internalType":"bytes32"},{"name":"callerConfirmation","type":"address","internalType":"address"}],"outputs":[],"stateMutability":"nonpayable"},{"type":"function","name":"revokeRole","inputs":[{"name":"role","type":"bytes32","internalType":"bytes32"},{"name":"account","type":"address","internalType":"address"}],"outputs":[],"stateMutability":"nonpayable"},{"type":"function","name":"sportsTokens","inputs":[{"name":"","type":"uint256","internalType":"uint256"}],"outputs":[{"name":"","type":"address","internalType":"address"}],"stateMutability":"view"},{"type":"function","name":"supportsInterface","inputs":[{"name":"interfaceId","type":"bytes4","internalType":"bytes4"}],"outputs":[{"name":"","type":"bool","internalType":"bool"}],"stateMutability":"view"},{"type":"event","name":"RoleAdminChanged","inputs":[{"name":"role","type":"bytes32","indexed":true,"internalType":"bytes32"},{"name":"previousAdminRole","type":"bytes32","indexed":true,"internalType":"bytes32"},{"name":"newAdminRole","type":"bytes32","indexed":true,"internalType":"bytes32"}],"anonymous":false},{"type":"event","name":"RoleGranted","inputs":[{"name":"role","type":"bytes32","indexed":true,"internalType":"bytes32"},{"name":"account","type":"address","indexed":true,"internalType":"address"},{"name":"sender","type":"address","indexed":true,"internalType":"address"}],"anonymous":false},{"type":"event","name":"RoleRevoked","inputs":[{"name":"role","type":"bytes32","indexed":true,"internalType":"bytes32"},{"name":"account","type":"address","indexed":true,"internalType":"address"},{"name":"sender","type":"address","indexed":true,"internalType":"address"}],"anonymous":false},{"type":"event","name":"SportsTokenDeployed","inputs":[{"name":"sportsToken","type":"address","indexed":true,"internalType":"address"},{"name":"unitPrice","type":"uint256","indexed":false,"internalType":"uint256"},{"name":"supply","type":"uint256","indexed":false,"internalType":"uint256"},{"name":"reciever","type":"address","indexed":false,"internalType":"address"}],"anonymous":false},{"type":"event","name":"WhitelistAdded","inputs":[{"name":"_address","type":"address","indexed":true,"internalType":"address"}],"anonymous":false},{"type":"event","name":"WhitelistRemoved","inputs":[{"name":"_address","type":"address","indexed":true,"internalType":"address"}],"anonymous":false},{"type":"error","name":"AccessControlBadConfirmation","inputs":[]},{"type":"error","name":"AccessControlUnauthorizedAccount","inputs":[{"name":"account","type":"address","internalType":"address"},{"name":"neededRole","type":"bytes32","internalType":"bytes32"}]}],"bytecode":{"object":"0x60806040523461002f576100196100146100f4565b610211565b610021610034565b615638610414823961563890f35b61003a565b60405190565b5f80fd5b601f801991011690565b634e487b7160e01b5f52604160045260245ffd5b906100669061003e565b810190811060018060401b0382111761007e57604052565b610048565b9061009661008f610034565b928361005c565b565b5f80fd5b60018060a01b031690565b6100b09061009c565b90565b6100bc816100a7565b036100c357565b5f80fd5b905051906100d4826100b3565b565b906020828203126100ef576100ec915f016100c7565b90565b610098565b610112615a4c8038038061010781610083565b9283398101906100d6565b90565b90565b90565b5f1b90565b61013461012f61013992610115565b61011b565b610118565b90565b6101455f610120565b90565b7fa49807205ce4d355092ef5a8a18f56e8913cf4a201fbe287825b095693c2177590565b7fe799c73ff785ac053943f5d98452f7fa0bcf54da67826fc217d6094dec75c5ee90565b90565b6101a76101a26101ac9261009c565b610190565b61009c565b90565b6101b890610193565b90565b6101c4906101af565b90565b906101d860018060a01b039161011b565b9181191691161790565b6101eb906101af565b90565b90565b9061020661020161020d926101e2565b6101ee565b82546101c7565b9055565b61025661025d9161022a61022361013c565b3390610302565b5061023d610236610148565b3390610302565b5061025061024961016c565b3390610302565b506101bb565b60016101f1565b565b5f90565b151590565b61027190610118565b90565b9061027e90610268565b5f5260205260405f2090565b61029390610193565b90565b61029f9061028a565b90565b906102ac90610296565b5f5260205260405f2090565b906102c460ff9161011b565b9181191691161790565b6102d790610263565b90565b90565b906102f26102ed6102f9926102ce565b6102da565b82546102b8565b9055565b5f0190565b61030a61025f565b5061031f6103198284906103d9565b15610263565b5f146103a75761034660016103415f610339818690610274565b0185906102a2565b6102dd565b9061034f610406565b9061038c6103866103807f2f8788117e7eff1d82e926ec794901d17c78024a50270940304540a733656f0d95610268565b92610296565b92610296565b92610395610034565b8061039f816102fd565b0390a4600190565b50505f90565b5f1c90565b60ff1690565b6103c46103c9916103ad565b6103b2565b90565b6103d690546103b8565b90565b6103ff915f6103f46103fa936103ed61025f565b5082610274565b016102a2565b6103cc565b90565b5f90565b61040e610402565b50339056fe60806040526004361015610013575b610906565b61001d5f3561010c565b806301ffc9a7146101075780630a1acc97146101025780630b71f116146100fd578063248a9ca3146100f85780632f2ff15d146100f35780633013ce29146100ee57806336568abe146100e95780633af32abf146100e45780633fe33ef2146100df57806359896366146100da57806375b238fc146100d557806391d14854146100d0578063a217fddf146100cb578063d49895c0146100c65763d547741f0361000e576108d2565b61089d565b6107a4565b610733565b6106fe565b61069c565b610669565b610634565b6105e2565b6105ad565b6104dc565b610475565b6103ff565b61035a565b610198565b60e01c90565b60405190565b5f80fd5b5f80fd5b5f80fd5b63ffffffff60e01b1690565b61013981610124565b0361014057565b5f80fd5b9050359061015182610130565b565b9060208282031261016c57610169915f01610144565b90565b61011c565b151590565b61017f90610171565b9052565b9190610196905f60208501940190610176565b565b346101c8576101c46101b36101ae366004610153565b61090e565b6101bb610112565b91829182610183565b0390f35b610118565b90565b6101d9816101cd565b036101e057565b5f80fd5b905035906101f1826101d0565b565b60018060a01b031690565b610207906101f3565b90565b610213816101fe565b0361021a57565b5f80fd5b9050359061022b8261020a565b565b5f80fd5b5f80fd5b5f80fd5b909182601f830112156102735781359167ffffffffffffffff831161026e57602001926001830284011161026957565b610235565b610231565b61022d565b91909160e08184031261033357610291835f83016101e4565b9261029f81602084016101e4565b926102ad82604085016101e4565b926102bb836060830161021e565b92608082013567ffffffffffffffff811161032e57816102dc918401610239565b92909360a082013567ffffffffffffffff811161032957836102ff918401610239565b92909360c082013567ffffffffffffffff8111610324576103209201610239565b9091565b610120565b610120565b610120565b61011c565b610341906101fe565b9052565b9190610358905f60208501940190610338565b565b3461039757610393610382610370366004610278565b98979097969196959295949394610cb4565b61038a610112565b91829182610345565b0390f35b610118565b5f9103126103a657565b61011c565b7fe799c73ff785ac053943f5d98452f7fa0bcf54da67826fc217d6094dec75c5ee90565b6103d76103ab565b90565b90565b6103e6906103da565b9052565b91906103fd905f602085019401906103dd565b565b3461042f5761040f36600461039c565b61042b61041a6103cf565b610422610112565b918291826103ea565b0390f35b610118565b61043d816103da565b0361044457565b5f80fd5b9050359061045582610434565b565b906020828203126104705761046d915f01610448565b90565b61011c565b346104a5576104a161049061048b366004610457565b610d1b565b610498610112565b918291826103ea565b0390f35b610118565b91906040838203126104d257806104c66104cf925f8601610448565b9360200161021e565b90565b61011c565b5f0190565b3461050b576104f56104ef3660046104aa565b90610d66565b6104fd610112565b80610507816104d7565b0390f35b610118565b1c90565b60018060a01b031690565b61052f9060086105349302610510565b610514565b90565b90610542915461051f565b90565b61055160015f90610537565b90565b90565b61056b610566610570926101f3565b610554565b6101f3565b90565b61057c90610557565b90565b61058890610573565b90565b6105949061057f565b9052565b91906105ab905f6020850194019061058b565b565b346105dd576105bd36600461039c565b6105d96105c8610545565b6105d0610112565b91829182610598565b0390f35b610118565b34610611576105fb6105f53660046104aa565b90610d72565b610603610112565b8061060d816104d7565b0390f35b610118565b9060208282031261062f5761062c915f0161021e565b90565b61011c565b346106645761066061064f61064a366004610616565b610dba565b610657610112565b91829182610183565b0390f35b610118565b346106975761067936600461039c565b610681610dd7565b610689610112565b80610693816104d7565b0390f35b610118565b346106ca576106ac36600461039c565b6106b4610e2d565b6106bc610112565b806106c6816104d7565b0390f35b610118565b7fa49807205ce4d355092ef5a8a18f56e8913cf4a201fbe287825b095693c2177590565b6106fb6106cf565b90565b3461072e5761070e36600461039c565b61072a6107196106f3565b610721610112565b918291826103ea565b0390f35b610118565b346107645761076061074f6107493660046104aa565b90610ec0565b610757610112565b91829182610183565b0390f35b610118565b90565b5f1b90565b61078561078061078a92610769565b61076c565b6103da565b90565b6107965f610771565b90565b6107a161078d565b90565b346107d4576107b436600461039c565b6107d06107bf610799565b6107c7610112565b918291826103ea565b0390f35b610118565b906020828203126107f2576107ef915f016101e4565b90565b61011c565b634e487b7160e01b5f52603260045260245ffd5b5490565b5f5260205f2090565b6108218161080b565b82101561083b5761083360019161080f565b910201905f90565b6107f7565b60018060a01b031690565b61085b9060086108609302610510565b610840565b90565b9061086e915461084b565b90565b600261087c8161080b565b821015610899576108969161089091610818565b90610863565b90565b5f80fd5b346108cd576108c96108b86108b33660046107d9565b610871565b6108c0610112565b91829182610345565b0390f35b610118565b34610901576108eb6108e53660046104aa565b90610f13565b6108f3610112565b806108fd816104d7565b0390f35b610118565b5f80fd5b5f90565b61091661090a565b508061093161092b637965db0b60e01b610124565b91610124565b1490811561093e575b5090565b6109489150610f1f565b5f61093a565b5f90565b906109759a99989796959493929161097061096b6106cf565b610f45565b610bbf565b90565b5f1c90565b61098961098e91610978565b610514565b90565b61099b905461097d565b90565b634e487b7160e01b5f52604160045260245ffd5b6109bb906101cd565b9052565b60209181520190565b90825f939282370152565b601f801991011690565b91906109f7816109f0816109fc956109bf565b80956109c8565b6109d3565b0190565b9b9c9a989593918c979593916101408901985f01610a1d91610338565b60208d01610a2a91610338565b60408c01610a37916109b2565b60608b01610a44916109b2565b60808a01610a51916109b2565b60a08901610a5e91610338565b60c08801610a6b91610338565b86820360e0880152610a7c926109dd565b90848203610100860152610a8f926109dd565b91808303906101200152610aa2926109dd565b90565b610aad610112565b3d5f823e3d90fd5b90565b610ac190610573565b90565b5f5260205f2090565b5490565b610ada81610acd565b821015610af457610aec600191610ac4565b910201905f90565b6107f7565b1b90565b91906008610b1d910291610b1760018060a01b0384610af9565b92610af9565b9181191691161790565b610b3090610573565b90565b90565b9190610b4c610b47610b5493610b27565b610b33565b908354610afd565b9055565b9081549168010000000000000000831015610b885782610b80916001610b8695018155610ad1565b90610b36565b565b61099e565b604090610bb6610bbd9496959396610bac60608401985f8501906109b2565b60208301906109b2565b0190610338565b565b9667ffffffffffffffff95979a9394999298919a50339633988c968b908d91610bf0610beb6001610991565b61057f565b93949596979899610bff610112565b9d8e6144ad81019d8e918210911117610caf578e9d610c279d8f6144ad906111569039610a00565b03905ff0928315610caa57610ca79392610c53610c446002610ab5565b610c4d86610ab8565b90610b58565b610c5c84610ab8565b91929092610c9f610c8d7f457ce294745fac5ea9a5f91ba2d96295410ca7905889c9c43fc3a04b331e90f194610b27565b94610c96610112565b93849384610b8d565b0390a2610ab8565b90565b610aa5565b61099e565b90610cce999897969594939291610cc961094e565b610952565b90565b5f90565b610cde906103da565b90565b90610ceb90610cd5565b5f5260205260405f2090565b90565b610d06610d0b91610978565b610cf7565b90565b610d189054610cfa565b90565b6001610d33610d3992610d2c610cd1565b505f610ce1565b01610d0e565b90565b90610d5791610d52610d4d82610d1b565b610f45565b610d59565b565b90610d6391610f9e565b50565b90610d7091610d3c565b565b9080610d8d610d87610d82611049565b6101fe565b916101fe565b03610d9e57610d9b91611056565b50565b5f63334bd91960e11b815280610db6600482016104d7565b0390fd5b610dd490610dc661090a565b50610dcf6103ab565b610ec0565b90565b610de9610de26103ab565b3390611056565b5033610e157fde8cf212af7ce38b2840785a2768d97ff2dbf3c21b516961cec0061e134c2a1e91610b27565b90610e1e610112565b80610e28816104d7565b0390a2565b610e3f610e386103ab565b3390610f9e565b5033610e6b7f4790a4adb426ca2345bb5108f6e454eae852a7bf687544cd66a7270dff3a41d691610b27565b90610e74610112565b80610e7e816104d7565b0390a2565b90610e8d90610b27565b5f5260205260405f2090565b60ff1690565b610eab610eb091610978565b610e99565b90565b610ebd9054610e9f565b90565b610ee6915f610edb610ee193610ed461090a565b5082610ce1565b01610e83565b610eb3565b90565b90610f0491610eff610efa82610d1b565b610f45565b610f06565b565b90610f1091611056565b50565b90610f1d91610ee9565b565b610f2761090a565b50610f41610f3b6301ffc9a760e01b610124565b91610124565b1490565b610f5790610f51611049565b9061111a565b565b90610f6560ff9161076c565b9181191691161790565b610f7890610171565b90565b90565b90610f93610f8e610f9a92610f6f565b610f7b565b8254610f59565b9055565b610fa661090a565b50610fbb610fb5828490610ec0565b15610171565b5f1461104357610fe26001610fdd5f610fd5818690610ce1565b018590610e83565b610f7e565b90610feb611049565b9061102861102261101c7f2f8788117e7eff1d82e926ec794901d17c78024a50270940304540a733656f0d95610cd5565b92610b27565b92610b27565b92611031610112565b8061103b816104d7565b0390a4600190565b50505f90565b61105161094e565b503390565b61105e61090a565b5061106a818390610ec0565b5f146110f1576110905f61108b5f611083818690610ce1565b018590610e83565b610f7e565b90611099611049565b906110d66110d06110ca7ff6391f5c32d9c69d2a47ea670b442974b53935d1edc7fd64eb21e047a839171b95610cd5565b92610b27565b92610b27565b926110df610112565b806110e9816104d7565b0390a4600190565b50505f90565b91602061111892949361111160408201965f830190610338565b01906103dd565b565b9061112f611129838390610ec0565b15610171565b611137575050565b6111515f92839263e2517d3f60e01b8452600484016110f7565b0390fdfe6101606040523461007f576100276100156102bd565b98979097969196959295949394610773565b61002f610084565b61361c610e918239608051816128e0015260a05181612917015260c051816128a7015260e05181612e4801526101005181612e6d01526101205181612b4d01526101405181612b8d015261361c90f35b61008a565b60405190565b5f80fd5b601f801991011690565b634e487b7160e01b5f52604160045260245ffd5b906100b69061008e565b810190811060018060401b038211176100ce57604052565b610098565b906100e66100df610084565b92836100ac565b565b5f80fd5b5f80fd5b60018060a01b031690565b610104906100f0565b90565b610110816100fb565b0361011757565b5f80fd5b9050519061012882610107565b565b90565b6101368161012a565b0361013d57565b5f80fd5b9050519061014e8261012d565b565b5f80fd5b5f80fd5b60018060401b0381116101745761017060209161008e565b0190565b610098565b90825f9392825e0152565b9092919261019961019482610158565b6100d3565b938185526020850190828401116101b5576101b392610179565b565b610154565b9080601f830112156101d8578160206101d593519101610184565b90565b610150565b90610140828203126102b8576101f5815f840161011b565b92610203826020850161011b565b926102118360408301610141565b9261021f8160608401610141565b9261022d8260808501610141565b9261023b8360a0830161011b565b926102498160c0840161011b565b9260e083015160018060401b0381116102b357826102689185016101ba565b9261010081015160018060401b0381116102ae57836102889183016101ba565b9261012082015160018060401b0381116102a9576102a692016101ba565b90565b6100ec565b6100ec565b6100ec565b6100e8565b6102db6144ad803803806102d0816100d3565b9283398101906101dd565b90919293949596979899565b906102f96102f483610158565b6100d3565b918252565b5f7f4d79525741000000000000000000000000000000000000000000000000000000910152565b61032f60056102e7565b9061033c602083016102fe565b565b610346610325565b90565b90565b90565b5f1b90565b61036861036361036d92610349565b61034f565b61034c565b90565b6103795f610354565b90565b7f65d7a28e3265b37a6474929f336521b332c1681b933f6cb9f3376673440d862a90565b906103ac5f199161034f565b9181191691161790565b90565b6103cd6103c86103d29261012a565b6103b6565b61012a565b90565b90565b906103ed6103e86103f4926103b9565b6103d5565b82546103a0565b9055565b9061040960018060a01b039161034f565b9181191691161790565b61042761042261042c926100f0565b6103b6565b6100f0565b90565b61043890610413565b90565b6104449061042f565b90565b90565b9061045f61045a6104669261043b565b610447565b82546103f8565b9055565b61047390610413565b90565b61047f9061046a565b90565b61048b9061046a565b90565b90565b906104a66104a16104ad92610482565b61048e565b82546103f8565b9055565b6104c56104c06104ca92610349565b6103b6565b61012a565b90565b5190565b634e487b7160e01b5f52602260045260245ffd5b9060016002830492168015610505575b602083101461050057565b6104d1565b91607f16916104f5565b5f5260205f2090565b601f602091010490565b1b90565b9190600861054191029161053b5f1984610522565b92610522565b9181191691161790565b919061056161055c610569936103b9565b6103d5565b908354610526565b9055565b5f90565b6105839161057d61056d565b9161054b565b565b5b818110610591575050565b8061059e5f600193610571565b01610586565b9190601f81116105b4575b505050565b6105c06105e59361050f565b9060206105cc84610518565b830193106105ed575b6105de90610518565b0190610585565b5f80806105af565b91506105de819290506105d5565b1c90565b9061060f905f19906008026105fb565b191690565b8161061e916105ff565b906002021790565b90610630816104cd565b9060018060401b0382116106ee576106528261064c85546104e5565b856105a4565b602090601f831160011461068657918091610675935f9261067a575b5050610614565b90555b565b90915001515f8061066e565b601f198316916106958561050f565b925f5b8181106106d6575091600293918560019694106106bc575b50505002019055610678565b6106cc910151601f8416906105ff565b90555f80806106b0565b91936020600181928787015181550195019201610698565b610098565b906106fd91610626565b565b9061070b60ff9161034f565b9181191691161790565b634e487b7160e01b5f52602160045260245ffd5b6003111561073357565b610715565b9061074282610729565b565b61074d90610738565b90565b90565b9061076861076361076f92610744565b610750565b82546106ff565b9055565b6107da94506107d5926107c66107e197936107b86107ce946107ab6108159f9e9d61080e9e9d9a9d6107a361033e565b91909161086e565b6107b3610370565b610a3c565b506107c161037c565b610a3c565b50600c6103d8565b600d61044a565b610476565b600b610491565b6107f46107ed5f6104b1565b600e6103d8565b6108076108005f6104b1565b600f6103d8565b60106103d8565b60116106f3565b61082160016012610753565b565b5f7f3100000000000000000000000000000000000000000000000000000000000000910152565b61085460016102e7565b9061086160208301610823565b565b61086b61084a565b90565b90610882929161087c610863565b90610884565b565b906108909392916108ae565b565b90565b90565b60200190565b5190565b6108ab9061042f565b90565b6108bf61090f946108f49394610943565b6108d3816108cd6007610892565b90610b37565b610120526108eb836108e56008610892565b90610b37565b61014052610895565b6109066109008261089e565b91610898565b2060e052610895565b61092161091b8261089e565b91610898565b20610100524660a052610932610c49565b60805261093e306108a2565b60c052565b9061094d9161094f565b565b906109599161095b565b565b9061096591610967565b565b9061097191610973565b565b9061097d9161097f565b565b906109899161098b565b565b9061099591610997565b565b906109a1916109a3565b565b906109ad916109af565b565b906109be6109c59260036106f3565b60046106f3565b565b5f90565b151590565b6109d99061034c565b90565b906109e6906109d0565b5f5260205260405f2090565b906109fc9061043b565b5f5260205260405f2090565b610a11906109cb565b90565b90565b90610a2c610a27610a3392610a08565b610a14565b82546106ff565b9055565b5f0190565b610a446109c7565b50610a59610a53828490610ce6565b156109cb565b5f14610ae257610a816001610a7c5f610a74600686906109dc565b0185906109f2565b610a17565b90610a8a610d14565b90610ac7610ac1610abb7f2f8788117e7eff1d82e926ec794901d17c78024a50270940304540a733656f0d956109d0565b9261043b565b9261043b565b92610ad0610084565b80610ada81610a37565b0390a4600190565b50505f90565b5f90565b90565b610b03610afe610b0892610aec565b6103b6565b61012a565b90565b90565b610b22610b1d610b2792610b0b565b61034f565b61034c565b90565b610b3460ff610b0e565b90565b90610b40610ae8565b50610b52610b4d83610895565b61089e565b610b65610b5f6020610aef565b9161012a565b105f14610b795750610b7690610e06565b90565b5f610b87610b8d9392610d21565b016106f3565b610b9d610b98610b2a565b6109d0565b90565b5f90565b7f8b73c3c69bb8fe3d512ecc4cf759cc79239f7b179b0ffacaa9a75d522b39400f90565b610bd2905161034c565b90565b610bde9061034c565b9052565b610beb9061012a565b9052565b610bf8906100fb565b9052565b90959492610c4794610c36610c4092610c2c608096610c2260a088019c5f890190610bd5565b6020870190610bd5565b6040850190610bd5565b6060830190610be2565b0190610bef565b565b610c51610ba0565b50610c5a610ba4565b610ca4610c6760e0610bc8565b91610c95610c76610100610bc8565b46610c80306108a2565b91610c89610084565b96879560208701610bfc565b602082018103825203826100ac565b610cb6610cb08261089e565b91610898565b2090565b5f1c90565b60ff1690565b610cd1610cd691610cba565b610cbf565b90565b610ce39054610cc5565b90565b610d0d915f610d02610d0893610cfa6109c7565b5060066109dc565b016109f2565b610cd9565b90565b5f90565b610d1c610d10565b503390565b90565b90565b610d3b610d36610d4092610d24565b6103b6565b61012a565b90565b60209181520190565b610d6b610d74602093610d7993610d62816104cd565b93848093610d43565b95869101610179565b61008e565b0190565b610d929160208201915f818403910152610d4c565b90565b610daf610daa610da48361089e565b92610898565b610bc8565b9060208110610dbd575b5090565b610dcf905f1990602003600802610522565b165f610db9565b610de2610de791610cba565b6103b9565b90565b610dfe610df9610e039261012a565b61034f565b61034c565b90565b610e0e610ae8565b50610e1881610895565b90610e228261089e565b610e35610e2f601f610d27565b9161012a565b11610e6a5750610e6281610e5c610e56610e51610e6795610d95565b610dd6565b9161089e565b17610dea565b6109d0565b90565b610e8c90610e76610084565b91829163305a27a960e01b835260048301610d7d565b0390fdfe60806040526004361015610013575b611473565b61001d5f3561027c565b806301ffc9a714610277578063047fc9aa14610272578063048f5abf1461026d57806306fdde0314610268578063095ea7b31461026357806318160ddd1461025e57806323b872dd14610259578063248a9ca3146102545780632afcf4801461024f5780632b925b251461024a5780632f2ff15d146102455780633013ce2914610240578063313ce5671461023b5780633644e5151461023657806336568abe146102315780633bc5de301461022c5780633f4ba83a1461022757806342966c68146102225780635216aeec1461021d5780635c975abb1461021857806370a082311461021357806379cc67901461020e5780637ecebe00146102095780638456cb591461020457806384b0196e146101ff5780639106d7ba146101fa57806391d14854146101f557806395d89b41146101f0578063a217fddf146101eb578063a9059cbb146101e6578063d505accf146101e1578063d547741f146101dc578063dd62ed3e146101d7578063e63ab1e9146101d2578063e73faa2d146101cd578063efcb6109146101c8578063f4b0b756146101c35763f9020e330361000e5761143e565b6113ac565b611322565b61127f565b61123b565b6111d6565b611175565b61113b565b611072565b61103d565b610fcd565b610f97565b610f62565b610f17565b610dd2565b610d9d565b610d69565b610d34565b610ce1565b610cac565b610c6a565b610c37565b610c02565b610a90565b610a5b565b610a26565b6109c9565b6108fc565b61089a565b610858565b610800565b610764565b6106f5565b6106bf565b610600565b6105cb565b6103a9565b610304565b60e01c90565b60405190565b5f80fd5b5f80fd5b63ffffffff60e01b1690565b6102a581610290565b036102ac57565b5f80fd5b905035906102bd8261029c565b565b906020828203126102d8576102d5915f016102b0565b90565b61028c565b151590565b6102eb906102dd565b9052565b9190610302905f602085019401906102e2565b565b346103345761033061031f61031a3660046102bf565b61147b565b610327610282565b918291826102ef565b0390f35b610288565b5f91031261034357565b61028c565b1c90565b90565b61035f9060086103649302610348565b61034c565b90565b90610372915461034f565b90565b61038160105f90610367565b90565b90565b61039090610384565b9052565b91906103a7905f60208501940190610387565b565b346103d9576103b9366004610339565b6103d56103c4610375565b6103cc610282565b91829182610394565b0390f35b610288565b634e487b7160e01b5f525f60045260245ffd5b634e487b7160e01b5f52602260045260245ffd5b9060016002830492168015610425575b602083101461042057565b6103f1565b91607f1691610415565b60209181520190565b5f5260205f2090565b905f929180549061045b61045483610405565b809461042f565b916001811690815f146104b25750600114610476575b505050565b6104839192939450610438565b915f925b81841061049a57505001905f8080610471565b60018160209295939554848601520191019290610487565b92949550505060ff19168252151560200201905f8080610471565b906104d791610441565b90565b601f801991011690565b634e487b7160e01b5f52604160045260245ffd5b90610502906104da565b810190811067ffffffffffffffff82111761051c57604052565b6104e4565b9061054161053a92610531610282565b938480926104cd565b03836104f8565b565b905f106105565761055390610521565b90565b6103de565b61056760115f90610543565b90565b5190565b60209181520190565b90825f9392825e0152565b6105a16105aa6020936105af936105988161056a565b9384809361056e565b95869101610577565b6104da565b0190565b6105c89160208201915f818403910152610582565b90565b346105fb576105db366004610339565b6105f76105e661055b565b6105ee610282565b918291826105b3565b0390f35b610288565b3461063057610610366004610339565b61062c61061b6114cc565b610623610282565b918291826105b3565b0390f35b610288565b60018060a01b031690565b61064990610635565b90565b61065581610640565b0361065c57565b5f80fd5b9050359061066d8261064c565b565b61067881610384565b0361067f57565b5f80fd5b905035906106908261066f565b565b91906040838203126106ba57806106ae6106b7925f8601610660565b93602001610683565b90565b61028c565b346106f0576106ec6106db6106d5366004610692565b906114e2565b6106e3610282565b918291826102ef565b0390f35b610288565b3461072557610705366004610339565b61072161071061152e565b610718610282565b91829182610394565b0390f35b610288565b909160608284031261075f5761075c610745845f8501610660565b936107538160208601610660565b93604001610683565b90565b61028c565b346107955761079161078061077a36600461072a565b91611544565b610788610282565b918291826102ef565b0390f35b610288565b90565b6107a68161079a565b036107ad57565b5f80fd5b905035906107be8261079d565b565b906020828203126107d9576107d6915f016107b1565b90565b61028c565b6107e79061079a565b9052565b91906107fe905f602085019401906107de565b565b346108305761082c61081b6108163660046107c0565b6115bd565b610823610282565b918291826107eb565b0390f35b610288565b9060208282031261084e5761084b915f01610683565b90565b61028c565b5f0190565b346108865761087061086b366004610835565b611e17565b610878610282565b8061088281610853565b0390f35b610288565b61089760135f90610367565b90565b346108ca576108aa366004610339565b6108c66108b561088b565b6108bd610282565b91829182610394565b0390f35b610288565b91906040838203126108f757806108eb6108f4925f86016107b1565b93602001610660565b90565b61028c565b3461092b5761091561090f3660046108cf565b90611e4c565b61091d610282565b8061092781610853565b0390f35b610288565b60018060a01b031690565b61094b9060086109509302610348565b610930565b90565b9061095e915461093b565b90565b61096d600b5f90610953565b90565b90565b61098761098261098c92610635565b610970565b610635565b90565b61099890610973565b90565b6109a49061098f565b90565b6109b09061099b565b9052565b91906109c7905f602085019401906109a7565b565b346109f9576109d9366004610339565b6109f56109e4610961565b6109ec610282565b918291826109b4565b0390f35b610288565b60ff1690565b610a0d906109fe565b9052565b9190610a24905f60208501940190610a04565b565b34610a5657610a36366004610339565b610a52610a41611e7b565b610a49610282565b91829182610a11565b0390f35b610288565b34610a8b57610a6b366004610339565b610a87610a76611e91565b610a7e610282565b918291826107eb565b0390f35b610288565b34610abf57610aa9610aa33660046108cf565b90611ea5565b610ab1610282565b80610abb81610853565b0390f35b610288565b610ae3610aec602093610af193610ada8161056a565b9384809361042f565b95869101610577565b6104da565b0190565b610afe90610384565b9052565b634e487b7160e01b5f52602160045260245ffd5b60031115610b2057565b610b02565b90610b2f82610b16565b565b610b3a90610b25565b90565b610b4690610b31565b9052565b90610be79060e080610b94610b82610b7061010086015f8901518782035f890152610ac4565b60208801518682036020880152610ac4565b60408701518582036040870152610ac4565b94610ba760608201516060860190610af5565b610bb960808201516080860190610af5565b610bcb60a082015160a0860190610af5565b610bdd60c082015160c0860190610af5565b0151910190610b3d565b90565b610bff9160208201915f818403910152610b4a565b90565b34610c3257610c12366004610339565b610c2e610c1d611fc3565b610c25610282565b91829182610bea565b0390f35b610288565b34610c6557610c47366004610339565b610c4f6120bb565b610c57610282565b80610c6181610853565b0390f35b610288565b34610c9857610c82610c7d366004610835565b6120c5565b610c8a610282565b80610c9481610853565b0390f35b610288565b610ca9600e5f90610367565b90565b34610cdc57610cbc366004610339565b610cd8610cc7610c9d565b610ccf610282565b91829182610394565b0390f35b610288565b34610d1157610cf1366004610339565b610d0d610cfc6120ff565b610d04610282565b918291826102ef565b0390f35b610288565b90602082820312610d2f57610d2c915f01610660565b90565b61028c565b34610d6457610d60610d4f610d4a366004610d16565b61212b565b610d57610282565b91829182610394565b0390f35b610288565b34610d9857610d82610d7c366004610692565b90612149565b610d8a610282565b80610d9481610853565b0390f35b610288565b34610dcd57610dc9610db8610db3366004610d16565b612168565b610dc0610282565b91829182610394565b0390f35b610288565b34610e0057610de2366004610339565b610dea6121a1565b610df2610282565b80610dfc81610853565b0390f35b610288565b60ff60f81b1690565b610e1790610e05565b9052565b610e2490610640565b9052565b5190565b60209181520190565b60200190565b90610e4881602093610af5565b0190565b60200190565b90610e6f610e69610e6284610e28565b8093610e2c565b92610e35565b905f5b818110610e7f5750505090565b909192610e98610e926001928651610e3b565b94610e4c565b9101919091610e72565b93959194610ef3610ee8610f0795610eda610efd95610f149c9a610ecd60e08c01925f8d0190610e0e565b8a820360208c0152610582565b9088820360408a0152610582565b976060870190610387565b6080850190610e1b565b60a08301906107de565b60c0818403910152610e52565b90565b34610f4e57610f27366004610339565b610f4a610f3261222c565b93610f41979597939193610282565b97889788610ea2565b0390f35b610288565b610f5f600f5f90610367565b90565b34610f9257610f72366004610339565b610f8e610f7d610f53565b610f85610282565b91829182610394565b0390f35b610288565b34610fc857610fc4610fb3610fad3660046108cf565b906122cc565b610fbb610282565b918291826102ef565b0390f35b610288565b34610ffd57610fdd366004610339565b610ff9610fe86122f6565b610ff0610282565b918291826105b3565b0390f35b610288565b90565b5f1b90565b61101e61101961102392611002565b611005565b61079a565b90565b61102f5f61100a565b90565b61103a611026565b90565b3461106d5761104d366004610339565b611069611058611032565b611060610282565b918291826107eb565b0390f35b610288565b346110a35761109f61108e611088366004610692565b9061230c565b611096610282565b918291826102ef565b0390f35b610288565b6110b1816109fe565b036110b857565b5f80fd5b905035906110c9826110a8565b565b60e081830312611136576110e1825f8301610660565b926110ef8360208401610660565b926110fd8160408501610683565b9261110b8260608301610683565b9261113361111c84608085016110bc565b9361112a8160a086016107b1565b9360c0016107b1565b90565b61028c565b346111705761115a61114e3660046110cb565b959490949391936123da565b611162610282565b8061116c81610853565b0390f35b610288565b346111a45761118e6111883660046108cf565b906124f8565b611196610282565b806111a081610853565b0390f35b610288565b91906040838203126111d157806111c56111ce925f8601610660565b93602001610660565b90565b61028c565b34611207576112036111f26111ec3660046111a9565b9061251a565b6111fa610282565b91829182610394565b0390f35b610288565b7f65d7a28e3265b37a6474929f336521b332c1681b933f6cb9f3376673440d862a90565b61123861120c565b90565b3461126b5761124b366004610339565b611267611256611230565b61125e610282565b918291826107eb565b0390f35b610288565b61127c600c5f90610367565b90565b346112af5761128f366004610339565b6112ab61129a611270565b6112a2610282565b91829182610394565b0390f35b610288565b60018060a01b031690565b6112cf9060086112d49302610348565b6112b4565b90565b906112e291546112bf565b90565b6112f1600a5f906112d7565b90565b6112fd9061098f565b90565b611309906112f4565b9052565b9190611320905f60208501940190611300565b565b3461135257611332366004610339565b61134e61133d6112e5565b611345610282565b9182918261130d565b0390f35b610288565b60018060a01b031690565b6113729060086113779302610348565b611357565b90565b906113859154611362565b90565b611394600d5f9061137a565b90565b91906113aa905f60208501940190610e1b565b565b346113dc576113bc366004610339565b6113d86113c7611388565b6113cf610282565b91829182611397565b0390f35b610288565b60ff1690565b6113f79060086113fc9302610348565b6113e1565b90565b9061140a91546113e7565b90565b61141960125f906113ff565b90565b61142590610b31565b9052565b919061143c905f6020850194019061141c565b565b3461146e5761144e366004610339565b61146a61145961140d565b611461610282565b91829182611429565b0390f35b610288565b5f80fd5b5f90565b611483611477565b508061149e611498637965db0b60e01b610290565b91610290565b149081156114ab575b5090565b6114b59150612542565b5f6114a7565b606090565b6114c990610521565b90565b6114d46114bb565b506114df60036114c0565b90565b6114ff916114ee611477565b506114f7612568565b919091612575565b600190565b5f90565b5f1c90565b61151961151e91611508565b61034c565b90565b61152b905461150d565b90565b611536611504565b506115416002611521565b90565b9161156e92611551611477565b5061156661155d612568565b829084916125c5565b919091612679565b600190565b5f90565b6115809061079a565b90565b9061158d90611577565b5f5260205260405f2090565b90565b6115a86115ad91611508565b611599565b90565b6115ba905461159c565b90565b60016115d66115dc926115ce611573565b506006611583565b016115b0565b90565b6115f0906115eb612716565b611b16565b565b61160661160161160b92611002565b610970565b610384565b90565b5f7f496e76616c696420616d6f756e74000000000000000000000000000000000000910152565b611642600e60209261056e565b61164b8161160e565b0190565b6116649060208101905f818303910152611635565b90565b1561166e57565b611676610282565b62461bcd60e51b81528061168c6004820161164f565b0390fd5b5f7f496e766573746d656e742062656c6f77206d696e696d756d0000000000000000910152565b6116c4601860209261056e565b6116cd81611690565b0190565b6116e69060208101905f8183039101526116b7565b90565b156116f057565b6116f8610282565b62461bcd60e51b81528061170e600482016116d1565b0390fd5b61171e61172391611508565b6113e1565b90565b6117309054611712565b90565b5f7f53616c65206e6f74206163746976650000000000000000000000000000000000910152565b611767600f60209261056e565b61177081611733565b0190565b6117899060208101905f81830391015261175a565b90565b1561179357565b61179b610282565b62461bcd60e51b8152806117b160048201611774565b0390fd5b6117c16117c691611508565b6112b4565b90565b6117d390546117b5565b90565b60e01b90565b6117e5816102dd565b036117ec57565b5f80fd5b905051906117fd826117dc565b565b9060208282031261181857611815915f016117f0565b90565b61028c565b611825610282565b3d5f823e3d90fd5b5f7f4e6f742077686974656c69737465640000000000000000000000000000000000910152565b611861600f60209261056e565b61186a8161182d565b0190565b6118839060208101905f818303910152611854565b90565b1561188d57565b611895610282565b62461bcd60e51b8152806118ab6004820161186e565b0390fd5b6118bb6118c091611508565b610930565b90565b6118cd90546118af565b90565b6118d99061098f565b90565b634e487b7160e01b5f52601160045260245ffd5b6118ff61190591939293610384565b92610384565b91611911838202610384565b92818404149015171561192057565b6118dc565b60409061194e611955949695939661194460608401985f850190610e1b565b6020830190610e1b565b0190610387565b565b5f7f5472616e73666572206661696c65640000000000000000000000000000000000910152565b61198b600f60209261056e565b61199481611957565b0190565b6119ad9060208101905f81830391015261197e565b90565b156119b757565b6119bf610282565b62461bcd60e51b8152806119d560048201611998565b0390fd5b6119e86119ee91939293610384565b92610384565b82018092116119f957565b6118dc565b611a0d611a1391939293610384565b92610384565b8203918211611a1e57565b6118dc565b90611a2f5f1991611005565b9181191691161790565b611a4d611a48611a5292610384565b610970565b610384565b90565b90565b90611a6d611a68611a7492611a39565b611a55565b8254611a23565b9055565b90611a8460ff91611005565b9181191691161790565b611a9790610b25565b90565b90565b90611ab2611aad611ab992611a8e565b611a9a565b8254611a78565b9055565b611ac69061098f565b90565b90959492611b1494611b03611b0d92611af9608096611aef60a088019c5f890190610387565b6020870190610387565b6040850190610387565b6060830190610387565b019061141c565b565b611b3381611b2c611b265f6115f2565b91610384565b1415611667565b611b5981611b52611b4c611b476013611521565b610384565b91610384565b10156116e9565b611b7f611b666012611726565b611b79611b736001610b25565b91610b25565b1461178c565b611bc06020611b96611b91600a6117c9565b6112f4565b633af32abf90611bb53392611ba9610282565b958694859384936117d6565b835260048301611397565b03915afa8015611e1257611bdb915f91611de4575b50611886565b611bed611be8600b6118c3565b61099b565b60206323b872dd913390611c305f611c04306118d0565b95611c3b611c1c89611c16600c611521565b906118f0565b611c24610282565b988997889687956117d6565b855260048501611925565b03925af18015611ddf57611c56915f91611db1575b506119b0565b611c6a81611c64600f611521565b906119d9565b611c85611c7f611c7a6010611521565b610384565b91610384565b11611d8e575b611c96338290612740565b611cc6611cbf611cb083611caa600c611521565b906118f0565b611cba600e611521565b6119d9565b600e611a58565b611ce3611cdc82611cd7600f611521565b6119d9565b600f611a58565b611ced600f611521565b611d08611d02611cfd6010611521565b610384565b91610384565b14611d7d575b33611d19600e611521565b611d23600f611521565b92611d78611d316010611521565b611d3b6012611726565b90611d667fdf4dad977f4132cfe027239a83c11a0ee7e3fbeba17d82307144c460d5be5e5e96611abd565b96611d6f610282565b95869586611ac9565b0390a2565b611d8960026012611a9d565b611d0e565b50611dac611d9c6010611521565b611da6600f611521565b906119fe565b611c8b565b611dd2915060203d8111611dd8575b611dca81836104f8565b8101906117ff565b5f611c50565b503d611dc0565b61181d565b611e05915060203d8111611e0b575b611dfd81836104f8565b8101906117ff565b5f611bd5565b503d611df3565b61181d565b611e20906115df565b565b90611e3d91611e38611e33826115bd565b61279e565b611e3f565b565b90611e49916127e1565b50565b90611e5691611e22565b565b5f90565b90565b611e73611e6e611e7892611e5c565b610970565b6109fe565b90565b611e83611e58565b50611e8e6012611e5f565b90565b611e99611573565b50611ea261288d565b90565b9080611ec0611eba611eb5612568565b610640565b91610640565b03611ed157611ece91612947565b50565b5f63334bd91960e11b815280611ee960048201610853565b0390fd5b90611f00611ef9610282565b92836104f8565b565b611f0d610100611eed565b90565b606090565b5f90565b5f90565b611f25611f02565b9060208080808080808089611f38611f10565b815201611f43611f10565b815201611f4e611f10565b815201611f59611f15565b815201611f64611f15565b815201611f6f611f15565b815201611f7a611f15565b815201611f85611f19565b81525050565b611f93611f1d565b90565b611fa1610100611eed565b90565b52565b90611fb190610384565b9052565b90611fbf90610b25565b9052565b611fcb611f8b565b50611fd46114cc565b611fdc6122f6565b6011611fe8600c611521565b611ff2600e611521565b611ffc600f611521565b916120076010611521565b936120126012611726565b9561201b611f96565b975f89019061202991611fa4565b602088019061203791611fa4565b612040906114c0565b604087019061204e91611fa4565b606086019061205c91611fa7565b608085019061206a91611fa7565b60a084019061207891611fa7565b60c083019061208691611fa7565b60e082019061209491611fb5565b90565b6120a76120a261120c565b61279e565b6120af6120b1565b565b6120b9612a49565b565b6120c3612097565b565b6120d6906120d1612568565b612a53565b565b60ff1690565b6120ea6120ef91611508565b6120d8565b90565b6120fc90546120de565b90565b612107611477565b5061211260056120f2565b90565b9061211f90611abd565b5f5260205260405f2090565b6121416121469161213a611504565b505f612115565b611521565b90565b90612166916121618161215a612568565b84916125c5565b612a53565b565b61217a90612174611504565b50612ab2565b90565b61218d61218861120c565b61279e565b612195612197565b565b61219f612b32565b565b6121a961217d565b565b5f90565b5f90565b606090565b6121c19061098f565b90565b67ffffffffffffffff81116121dc5760208091020190565b6104e4565b906121f36121ee836121c4565b611eed565b918252565b369037565b9061222261220a836121e1565b9260208061221886936121c4565b92019103906121f8565b565b600f60f81b90565b6122346121ab565b5061223d6114bb565b506122466114bb565b5061224f611504565b506122586121af565b50612261611573565b5061226a6121b3565b50612273612b3f565b9061227c612b7f565b904690612288306121b8565b906122925f61100a565b906122a461229f5f6115f2565b6121fd565b906122ad612224565b96959493929190565b906122c090611abd565b5f5260205260405f2090565b6122f3915f6122e86122ee936122e0611477565b506006611583565b016122b6565b6120f2565b90565b6122fe6114bb565b5061230960046114c0565b90565b61232991612318611477565b50612321612568565b919091612679565b600190565b7f6e71edae12b1b97f4d1f60370fef10105fa2faae0126114a169c64845d6126c990565b919461239a6123a49298979561239060a0966123866123ab9a61237c60c08a019e5f8b01906107de565b6020890190610e1b565b6040870190610e1b565b6060850190610387565b6080830190610387565b0190610387565b565b60200190565b5190565b9160206123d89294936123d160408201965f830190610e1b565b0190610e1b565b565b9695919392949094426123f56123ef83610384565b91610384565b116124af579061245e61246794939261244661240f61232e565b6124378c80948c916124218d91612bce565b919261242b610282565b97889660208801612352565b602082018103825203826104f8565b612458612452826123b3565b916123ad565b20612c01565b92909192612c1e565b8061247a61247487610640565b91610640565b0361248f575061248d9293919091612575565b565b84906124ab5f9283926325c0072360e11b8452600484016123b7565b0390fd5b6124ca905f91829163313c898160e11b835260048301610394565b0390fd5b906124e9916124e46124df826115bd565b61279e565b6124eb565b565b906124f591612947565b50565b90612502916124ce565b565b9061250e90611abd565b5f5260205260405f2090565b61253f9161253561253a9261252d611504565b506001612504565b612115565b611521565b90565b61254a611477565b5061256461255e6301ffc9a760e01b610290565b91610290565b1490565b6125706121af565b503390565b916125839291600192612c45565b565b6040906125ae6125b594969593966125a460608401985f850190610e1b565b6020830190610387565b0190610387565b565b906125c29103610384565b90565b9291926125d381839061251a565b90816125e86125e25f19610384565b91610384565b106125f5575b5050509050565b8161260861260287610384565b91610384565b1061262e57612625939461261d9193926125b7565b905f92612c45565b805f80806125ee565b5061264d849291925f938493637dc7a0d960e11b855260048501612585565b0390fd5b61266561266061266a92611002565b610970565b610635565b90565b61267690612651565b90565b918261269561268f61268a5f61266d565b610640565b91610640565b146126ef57816126b56126af6126aa5f61266d565b610640565b91610640565b146126c8576126c692919091612d54565b565b6126eb6126d45f61266d565b5f91829163ec442f0560e01b835260048301611397565b0390fd5b6127126126fb5f61266d565b5f918291634b637e8f60e11b835260048301611397565b0390fd5b61271e6120ff565b61272457565b5f63d93c066560e01b81528061273c60048201610853565b0390fd5b8061275b6127556127505f61266d565b610640565b91610640565b14612777576127759161276d5f61266d565b919091612d54565b565b61279a6127835f61266d565b5f91829163ec442f0560e01b835260048301611397565b0390fd5b6127b0906127aa612568565b90612d86565b565b6127bb906102dd565b90565b90565b906127d66127d16127dd926127b2565b6127be565b8254611a78565b9055565b6127e9611477565b506127fe6127f88284906122cc565b156102dd565b5f146128875761282660016128215f61281960068690611583565b0185906122b6565b6127c1565b9061282f612568565b9061286c6128666128607f2f8788117e7eff1d82e926ec794901d17c78024a50270940304540a733656f0d95611577565b92611abd565b92611abd565b92612875610282565b8061287f81610853565b0390a4600190565b50505f90565b612895611573565b5061289f306121b8565b6128d16128cb7f0000000000000000000000000000000000000000000000000000000000000000610640565b91610640565b148061290d575b5f14612902577f000000000000000000000000000000000000000000000000000000000000000090565b61290a612e32565b90565b504661294161293b7f0000000000000000000000000000000000000000000000000000000000000000610384565b91610384565b146128d8565b61294f611477565b5061295b8183906122cc565b5f146129e3576129825f61297d5f61297560068690611583565b0185906122b6565b6127c1565b9061298b612568565b906129c86129c26129bc7ff6391f5c32d9c69d2a47ea670b442974b53935d1edc7fd64eb21e047a839171b95611577565b92611abd565b92611abd565b926129d1610282565b806129db81610853565b0390a4600190565b50505f90565b6129f1612ed0565b6129f96129fb565b565b612a065f60056127c1565b612a0e612568565b612a447f5db9ee0a495bf2e6ff9c91a7834c1ba4fdd244a5e8aa4e537bd38aeae4b073aa91612a3b610282565b91829182611397565b0390a1565b612a516129e9565b565b9081612a6f612a69612a645f61266d565b610640565b91610640565b14612a8b57612a899190612a825f61266d565b9091612d54565b565b612aae612a975f61266d565b5f918291634b637e8f60e11b835260048301611397565b0390fd5b612ac9612ace91612ac1611504565b506009612115565b611521565b90565b612ad9612716565b612ae1612ae3565b565b612aef600160056127c1565b612af7612568565b612b2d7f62e78cea01bee320cd4e420270b5ea74000d11b0c9f74754ebdbfc544b05a25891612b24610282565b91829182611397565b0390a1565b612b3a612ad1565b565b90565b612b476114bb565b50612b7c7f0000000000000000000000000000000000000000000000000000000000000000612b766007612b3c565b90612fff565b90565b612b876114bb565b50612bbc7f0000000000000000000000000000000000000000000000000000000000000000612bb66008612b3c565b90612fff565b90565b6001612bcb9101610384565b90565b612be290612bda611504565b506009612115565b612bfe612bee82611521565b91612bf883612bbf565b90611a58565b90565b612c1b90612c0d611573565b50612c1661288d565b61304d565b90565b92612c3992612c4294612c2f6121af565b5092909192613103565b9092919261321a565b90565b909281612c62612c5c612c575f61266d565b610640565b91610640565b14612d2d5783612c82612c7c612c775f61266d565b610640565b91610640565b14612d0657612ca683612ca1612c9a60018690612504565b8790612115565b611a58565b612cb0575b505050565b919091612cfb612ce9612ce37f8c5be1e5ebec7d5bd14f71427d1e84f3dd0314c0f7b2291e5b200ac8c7c3b92593611abd565b93611abd565b93612cf2610282565b91829182610394565b0390a35f8080612cab565b612d29612d125f61266d565b5f918291634a1406b160e11b835260048301611397565b0390fd5b612d50612d395f61266d565b5f91829163e602df0560e01b835260048301611397565b0390fd5b91612d619291909161330f565b565b916020612d84929493612d7d60408201965f830190610e1b565b01906107de565b565b90612d9b612d958383906122cc565b156102dd565b612da3575050565b612dbd5f92839263e2517d3f60e01b845260048401612d63565b0390fd5b7f8b73c3c69bb8fe3d512ecc4cf759cc79239f7b179b0ffacaa9a75d522b39400f90565b90959492612e3094612e1f612e2992612e15608096612e0b60a088019c5f8901906107de565b60208701906107de565b60408501906107de565b6060830190610387565b0190610e1b565b565b612e3a611573565b50612e43612dc1565b612eba7f000000000000000000000000000000000000000000000000000000000000000091612eab7f000000000000000000000000000000000000000000000000000000000000000046612e96306121b8565b91612e9f610282565b96879560208701612de5565b602082018103825203826104f8565b612ecc612ec6826123b3565b916123ad565b2090565b612ee1612edb6120ff565b156102dd565b612ee757565b5f638dfc202b60e01b815280612eff60048201610853565b0390fd5b90565b612f1a612f15612f1f92612f03565b611005565b61079a565b90565b612f2c60ff612f06565b90565b5f5260205f2090565b905f9291805490612f52612f4b83610405565b809461042f565b916001811690815f14612fa95750600114612f6d575b505050565b612f7a9192939450612f2f565b915f925b818410612f9157505001905f8080612f68565b60018160209295939554848601520191019290612f7e565b92949550505060ff19168252151560200201905f8080612f68565b90612fce91612f38565b90565b90612ff1612fea92612fe1610282565b93848092612fc4565b03836104f8565b565b612ffc90612fd1565b90565b906130086114bb565b5061301282611577565b61302b613025613020612f22565b61079a565b9161079a565b14155f14613040575061303d906133a1565b90565b61304a9150612ff3565b90565b604291613058611573565b50604051917f19010000000000000000000000000000000000000000000000000000000000008352600283015260228201522090565b5f90565b61309e6130a391611508565b611a39565b90565b90565b6130bd6130b86130c2926130a6565b610970565b610384565b90565b6130fa613101946130f06060949897956130e6608086019a5f8701906107de565b6020850190610a04565b60408301906107de565b01906107de565b565b93929361310e6121af565b5061311761308e565b50613120611573565b5061312a85613092565b61315c6131567f7fffffffffffffffffffffffffffffff5d576e7357a4501ddfe92f46681b20a06130a9565b91610384565b116131e9579061317f602094955f94939293613176610282565b948594856130c5565b838052039060015afa156131e4576131975f51611005565b806131b26131ac6131a75f61266d565b610640565b91610640565b146131c8575f916131c25f61100a565b91929190565b506131d25f61266d565b6001916131de5f61100a565b91929190565b61181d565b5050506131f55f61266d565b9060039291929190565b6004111561320957565b610b02565b90613218826131ff565b565b8061322d6132275f61320e565b9161320e565b145f14613238575050565b8061324c613246600161320e565b9161320e565b145f1461326f575f63f645eedf60e01b81528061326b60048201610853565b0390fd5b8061328361327d600261320e565b9161320e565b145f146132b1576132ad61329683613092565b5f91829163fce698f760e01b835260048301610394565b0390fd5b6132c46132be600361320e565b9161320e565b146132cc5750565b6132e7905f9182916335e2f38360e21b8352600483016107eb565b0390fd5b906132fe92916132f9612716565b613300565b565b9161330d929190916133df565b565b9061331a92916132eb565b565b90565b61333361332e6133389261331c565b610970565b610384565b90565b67ffffffffffffffff8111613359576133556020916104da565b0190565b6104e4565b9061337061336b8361333b565b611eed565b918252565b369037565b9061339f6133878361335e565b92602080613395869361333b565b9201910390613375565b565b6133a96114bb565b506133b381613589565b906133c66133c1602061331f565b61337a565b918252602082015290565b906133dc9101610384565b90565b919091806133fd6133f76133f25f61266d565b610640565b91610640565b145f146134de5761342161341a836134156002611521565b6119d9565b6002611a58565b5b8261343d6134376134325f61266d565b610640565b91610640565b145f146134b25761346161345a836134556002611521565b6125b7565b6002611a58565b5b9190916134ad61349b6134957fddf252ad1be2c89b69c2b068fc378daa952ba7f163c4a11628f55a4df523b3ef93611abd565b93611abd565b936134a4610282565b91829182610394565b0390a3565b6134d9826134d36134c45f8790612115565b916134ce83611521565b6133d1565b90611a58565b613462565b6134f16134ec5f8390612115565b611521565b806135046134fe85610384565b91610384565b1061352c576135176135279184906125b7565b6135225f8490612115565b611a58565b613422565b9061354a9091925f93849363391434e360e21b855260048501612585565b0390fd5b61356261355d61356792612f03565b610970565b610384565b90565b90565b61358161357c6135869261356a565b610970565b610384565b90565b61359e6135a391613598611504565b50611577565b613092565b6135ad60ff61354e565b16806135c26135bc601f61356d565b91610384565b116135ca5790565b5f632cd44ac360e21b8152806135e260048201610853565b0390fdfea264697066735822122017fbe6204e48da11e1db92a9b7e62e8d217c4907403b90ee5c8785f7e1f5476264736f6c634300081e0033a26469706673582212204b8d1158c5bf3917b73c66c1a26c43417275d6eb9a062750bef75dc0170a3b5f64736f6c634300081e0033","linkReferences":{}},"methodIdentifiers":{"ADMIN_ROLE()":"75b238fc","DEFAULT_ADMIN_ROLE()":"a217fddf","WHITELISTED()":"0b71f116","addToWhitelist()":"59896366","deploySportsToken(uint256,uint256,uint256,address,string,string,string)":"0a1acc97","getRoleAdmin(bytes32)":"248a9ca3","grantRole(bytes32,address)":"2f2ff15d","hasRole(bytes32,address)":"91d14854","isWhitelisted(address)":"3af32abf","paymentToken()":"3013ce29","removeFromWhitelist()":"3fe33ef2","renounceRole(bytes32,address)":"36568abe","revokeRole(bytes32,address)":"d547741f","sportsTokens(uint256)":"d49895c0","supportsInterface(bytes4)":"01ffc9a7"},"id":48}